:020000040800F2
:1000000000060020F505000805310008B930000899
:10001000E1300008B9300008D9300008F7050008C1
:10002000F7050008F7050008F7050008C1A5000856
:10003000F7050008F7050008F7050008F7050008B0
:10004000F7050008F7050008F7050008F7050008A0
:10005000F7050008F7050008D59B0008019C00087B
:100060002D9C0008599C0008859C0008F705000895
:10007000F7050008F7050008F7050008F705000870
:10008000F7050008F7050008F7050008F705000860
:10009000F7050008F7050008F7050008B19C0008FF
:1000A000F7050008F7050008F7050008F705000840
:1000B000F7050008F7050008F7050008F705000830
:1000C000F7050008F7050008F7050008F705000820
:1000D000F7050008F7050008B19D0008F7050008BE
:1000E000159D0008F7050008F7050008F70500084A
:1000F000F7050008F7050008F7050008F7050008F0
:10010000F70500089D9D0008C59D0008F70500083B
:10011000F7050008F7050008F7050008F7050008CF
:10012000F7050008F7050008F7050008F7050008BF
:10013000F7050008F7050008F7050008F7050008AF
:10014000F7050008F7050008F7050008F70500089F
:10015000F7050008F7050008F7050008F70500088F
:10016000F7050008F7050008F7050008F70500087F
:10017000F7050008C5980008F7050008F70500080E
:10018000F7050008F7050008F7050008F70500085F
:10019000F7050008F7050008F7050008F70500084F
:1001A000F7050008F7050008F7050008F70500083F
:1001B000899D0008F7050008F7050008F705000805
:1001C000F7050008F7050008F7050008F70500081F
:1001D000F7050008B1980008F7050008F7050008C2
:1001E000F7050008F7050008F7050008F7050008FF
:1001F000F7050008F7050008F7050008F7050008EF
:10020000F7050008F7050008F7050008F7050008DE
:10021000F7050008F7050008F7050008F7050008CE
:10022000F7050008F7050008318D0008F7050008FC
:10023000F7050008F7050008F7050008F7050008AE
:10024000F7050008F7050008F7050008F70500089E
:10025000F7050008F7050008F7050008F70500088E
:10026000F7050008F7050008F7050008F70500087E
:10027000F7050008F7050008F7050008F70500086E
:10028000F7050008F7050008F7050008F70500085E
:10029000F7050008F7050008F7050008F70500084E
:1002A000F7050008F7050008F7050008F70500083E
:1002B000F7050008F7050008F7050008F70500082E
:1002C000F7050008F7050008F7050008F70500081E
:1002D000F7050008F7050008F7050008F70500080E
:1002E000DD070008B92C0008C92F00080000000035
:1002F00053B94AB9002908BF00281CBF4FF0FF318D
:100300004FF0FF3000F074B9ADF1080C6DE904CE88
:1003100000F006F8DDF804E0DDE9022304B07047E0
:100320002DE9F047089D04468E46002B4DD18A42A8
:10033000944669D9B2FA82F252B101FA02F3C2F1DB
:10034000200120FA01F10CFA02FC41EA030E94406C
:100350004FEA1C48210CBEFBF8F61FFA8CF708FB8D
:1003600016E341EA034306FB07F199420AD91CEB65
:10037000030306F1FF3080F01F81994240F21C8197
:10038000023E63445B1AA4B2B3FBF8F008FB1033DF
:1003900044EA034400FB07F7A7420AD91CEB040414
:1003A00000F1FF3380F00A81A74240F207816444E4
:1003B000023840EA0640E41B00261DB1D440002369
:1003C000C5E900433146BDE8F0878B4209D9002DCD
:1003D00000F0EF800026C5E9000130463146BDE857
:1003E000F087B3FA83F6002E4AD18B4202D38242C1
:1003F00000F2F980841A61EB030301209E46002D70
:10040000E0D0C5E9004EDDE702B9FFDEB2FA82F2C4
:10041000002A40F09280A1EB0C014FEA1C471FFA22
:100420008CFE0126200CB1FBF7F307FB131140EA09
:1004300001410EFB03F0884208D91CEB010103F1D6
:10044000FF3802D2884200F2CB804346091AA4B298
:10045000B1FBF7F007FB101144EA01440EFB00FE6C
:10046000A64508D91CEB040400F1FF3102D2A645D1
:1004700000F2BB800846A4EB0E0440EA03409CE770
:10048000C6F12007B34022FA07FC4CEA030C20FA1D
:1004900007F401FA06F31C43F9404FEA1C4900FA3D
:1004A00006F3B1FBF9F8200C1FFA8CFE09FB1811BA
:1004B00040EA014108FB0EF0884202FA06F20BD92D
:1004C0001CEB010108F1FF3A80F08880884240F27D
:1004D0008580A8F102086144091AA4B2B1FBF9F0C1
:1004E00009FB101144EA014100FB0EFE8E4508D9BC
:1004F0001CEB010100F1FF346CD28E456AD9023841
:10050000614440EA0840A0FB0294A1EB0E01A14225
:10051000C846A64656D353D05DB1B3EB080261EB93
:100520000E0101FA07F722FA06F3F1401F43C5E96D
:10053000007100263146BDE8F087C2F12003D840A3
:100540000CFA02FC21FA03F3914001434FEA1C47E5
:100550001FFA8CFEB3FBF7F007FB10360B0C43EAD7
:10056000064300FB0EF69E4204FA02F408D91CEB87
:10057000030300F1FF382FD29E422DD90238634485
:100580009B1B89B2B3FBF7F607FB163341EA034125
:1005900006FB0EF38B4208D91CEB010106F1FF3874
:1005A00016D28B4214D9023E6144C91A46EA00466B
:1005B00038E72E46284605E70646E3E61846F8E6FD
:1005C0004B45A9D2B9EB020864EB0C0E0138A3E746
:1005D0004646EAE7204694E74046D1E7D0467BE727
:1005E000023B614432E7304609E76444023842E79F
:1005F000704700BF02E000F000F8FEE772B637482F
:1006000080F30888364880F3098836483649086000
:1006100040F20000CCF200004EF63471CEF2000140
:100620000860BFF34F8FBFF36F8F40F20000C0F23E
:10063000F0004EF68851CEF200010860BFF34F8FF4
:10064000BFF36F8F4FF00000E1EE100A4EF63C71E1
:10065000CEF200010860062080F31488BFF36F8F8C
:1006600008F0CEFA07F096FC4FF055301F491B4AB0
:1006700091423CBF41F8040BFAE71D49184A9142E8
:100680003CBF41F8040BFAE71A491B4A1B4B9A423C
:100690003EBF51F8040B42F8040BF8E7002018495C
:1006A000184A91423CBF41F8040BFAE708F0E6FA19
:1006B00007F0E0FC144C154DAC4203DA54F8041B6F
:1006C0008847F9E700F050F8114C124DAC4203DABC
:1006D00054F8041B8847F9E708F0CEBA000600205A
:1006E000002200200000000808ED00E000000020CB
:1006F00000060020D0B4000800220020D0220020F4
:10070000D022002000600020E0020008EC02000877
:10071000EC020008EC0200082DE9F04F2DED108AE4
:10072000C1F80CD0D0F80CD0BDEC108ABDE8F08F29
:10073000002383F311882846A047002007F01CFA05
:10074000FEE707F04BF900DFFEE70000054B10B5B0
:1007500004460360806810B103685B6898472046D0
:1007600010BD00BFC4AA000870B500F039FD08F044
:100770004FF9054608F03AFA0446B0B9154B9D42C8
:1007800015D001339D4241F2883504BF0124002574
:10079000114E002008F046F9304602F0AFF840B99B
:1007A00044F6206007F0EEF9F6E70025F0E705468D
:1007B000EEE70CB100F094F801F0CCFC01F044FB42
:1007C00000F076FE08B100F08BF8284600F036F90C
:1007D000F9E700BF010007B0D02200200448054B14
:1007E000054A036000230549836009F093BF00BFF9
:1007F000D0220020C4AA0008583700204D07000866
:1008000008B501F0EDFAA0F120035842584108BDA7
:1008100007B5042101900DEB010001F0FFFA03B0D0
:100820005DF804FB07B541F21203022101A8ADF8FF
:10083000043001F0F3FA03B05DF804FB38B530235F
:1008400083F31188174803680BB107F079FA002386
:10085000154A4FF47A71134807F068FA002383F3BE
:100860001188124C236813B12368013B236063682D
:1008700013B16368013B63600D4D2B7833B9636836
:100880007BB9022001F0A6FB322363602B78032B97
:1008900007D163682BB9022001F09CFB4FF47A73F7
:1008A000636038BD602300203D08000880240020DC
:1008B00078230020084B187003280CD8DFE800F0DC
:1008C00008050208022001F07DBB022001F070BB88
:1008D000024B00225A6070477823002080240020B9
:1008E000F7B54E4801A902F089F9002800F094807C
:1008F0004B4B4C4A1C461968013100F08A80043386
:100900009342F8D16268484B9A4240F28280474B4A
:100910009B6803F1006303F500339A4279D200200B
:1009200001F0B8FA0220FFF7C5FF414B00219A6C95
:1009300099641A6F19671A6FDA6CD9645A6F59671C
:100940005A6F1A6D19659A6F99679B6F394BD3F877
:10095000802042F00062C3F88020D3F8802022F08B
:100960000062C3F88020D3F88020D3F8802042F0C2
:100970000072C3F88020D3F8802022F00072C3F800
:100980008020D3F8803072B64FF0E023C3F8084DD2
:10099000D4E90004BFF34F8FBFF36F8F264AC2F82C
:1009A0008410BFF34F8F536923F480335361BFF337
:1009B0004F8FD2F8803043F6E076C3F3C905C3F316
:1009C0004E335B0103EA060C29464CEA8177013974
:1009D000C2F87472F9D2203B13F1200FF2D1BFF3A9
:1009E0004F8FBFF36F8FBFF34F8FBFF36F8F53697D
:1009F00023F4003353610023C2F85032BFF34F8F0A
:100A0000BFF36F8F302383F31188854680F3088806
:100A10002047024801F03AFC03B0F0BDD02200208C
:100A20000000020820000208FFFF01080022002049
:100A3000004502580044025800ED00E02DE9F04F57
:100A4000B04B9DB02022FF21079014A89E68DB6860
:100A5000069301F029FBAC4A1378A3B90121AB48F6
:100A600011700360302383F3118803680BB107F022
:100A700067F90023A64A4FF47A71A44807F056F9A3
:100A8000002383F31188079B13B1A24B079A1A60C6
:100A9000A14A1378032B03D0002313709D4A53609F
:100AA0000023079D1F469B46CDE90433012001F03A
:100AB00089FA25B1974B1B68002B00F05783002063
:100AC00001F08EF90C900C9B002BF2DB012001F061
:100AD0006FFA0C9B213B1F2BE8D801A252F823F0A0
:100AE000610B0008890B00081F0C0008AD0A000804
:100AF000AD0A0008AD0A0008CD0E0008E710000896
:100B0000890F0008651000088B100008B11000085C
:100B1000AD0A0008C3100008AD0A00082F11000834
:100B2000010C0008AD0A000873110008B30C00089E
:100B3000EB0D0008AD0A0008DD0F0008AD0A000843
:100B4000AD0A0008AD0A0008AD0A0008AD0A0008A9
:100B5000AD0A0008AD0A0008AD0A00081F0C000825
:100B60000220FFF74DFE002840F02B83079B022157
:100B7000059A0FA8002A08BF1D4641F21233ADF8AE
:100B80003C3001F04BF991E74FF47A7001F028F90D
:100B9000041EEBDB0220FFF733FE0028E6D0013C09
:100BA000052C00F21083DFE804F0030A0D10133760
:100BB000052304210FA80F9301F030F917E0042159
:100BC0005048F9E704215548F6E704215448F3E773
:100BD0004FF01C08404608F1040801F05DF90421BB
:100BE0000F900FA801F01AF9B8F12C0FF2D10120E3
:100BF000049B4FF0000B00FA04F41C43E3B204938F
:100C000001F09EFA2FB1049B03F00B030B2B08BFDE
:100C10000025FFF707FE49E704214248CCE7002FF3
:100C2000A4D0049B03F00B030B2B9FD10220FFF7F2
:100C3000E7FD0446002899D00120002701F02AF999
:100C40000220FFF737FE1FFA87F8404601F032F91D
:100C50000546B0B10C9940460137A1F1400251421E
:100C6000514101F037F90028EDD10546059441F2D4
:100C7000121302210FA82746ADF83C3001F0CEF840
:100C800014E72E460120FFF715FE1E4B9B68B3426A
:100C900007D9304601F000F9013040F09782043660
:100CA000F3E700261C4B274605941E70194B5E6027
:100CB000A6E7002F3FF45AAF049B03F00B030B2B66
:100CC0007FF454AF64210DA801F09EF880460028FF
:100CD0007FF44CAF0220FFF793FD044600283FF459
:100CE00045AFDFF848908DF82F80D9F82420D9F847
:100CF000203053430D9A93421AD20B4801F074F9F5
:100D000034E700BF002200207C2400206023002064
:100D10003D080008802400207823002004220020C1
:100D2000082200200C220020D0A80008D022002099
:100D3000BE484746C24601F057F9FFF773FD01214F
:100D40000DF12F0001F06AF80D9B534541D90023A6
:100D50000EAA39464846CDE90E330FAB01F09AFA98
:100D6000002884D002F0D6F90E9B00EB0308012185
:100D70000DF12F0001F052F802F0CCF9404520D9D6
:100D8000484601F0C1FC80B964210D9BA848013799
:100D900001FB0AF1B1FBF3F18DF82F10C9B201F09C
:100DA00023F9D9F820309A44CEE702F0B3F90F9B2B
:100DB000184440453FF65BAF02F0ACF90E9B00EBE8
:100DC00003080E9B4FF47A70A3FB000306F0DAFED3
:100DD000CDE7642301210DF12F0027468DF82F3038
:100DE00001F01CF8002306930AE7002F3FF4BEAE83
:100DF000049B03F00B030B2B7FF4B8AE0220FFF72C
:100E000059FD322000F0ECFF041EFFF6AFAE069B4A
:100E1000A046E3180893874B089ADB689A423FF68E
:100E2000A5AEB4F5807F3FF7A1AEDFF80CA24FF07E
:100E300000094C450EDD4FF47A7000F0D1FF0C90A4
:100E40000C9B002BFFF692AE0C9B09F101090AF8EE
:100E5000013BEEE7C820FFF7D3FC044600283FF42F
:100E600085AE0027DFF8D491CDE90E77B8F1000FF9
:100E700002D12746089BB6E70FAB6F4A0699484652
:100E800002930EAB3A44394401930DAB00934346B1
:100E900001F01CFE00283FF4EAAE02F03DF90D9B84
:100EA0008A4609901F44A8EB030802F035F9099A15
:100EB0000E9B9B184AF10002834272EB0103F4D2AD
:100EC000484601F021FC0028EFD1CFE7002F3FF486
:100ED0004DAE049B03F00B030B2B7FF447AE0220B7
:100EE000FFF7E8FC322000F07BFFB0F10008FFF6CE
:100EF0003DAE18F003047FF439AE4E4A08EB06030A
:100F0000926893423FF632AEB8F5807F3FF72EAE3F
:100F1000DFF82491A0450DDD4FF47A7000F060FFFA
:100F20000C900C9B002BFFF621AE0C9B013409F8B2
:100F3000013BEFE7C820FFF763FC044600283FF4BD
:100F400015AE1F2E11D8C6F1200214AB26F00300F7
:100F500039494245184428BF4246089201F072F8C8
:100F6000089AFF21344801F09FF8C8F387023249FC
:100F700030464FEAA80901F09FF8074600283FF4E1
:100F800076AE06EB89063BE60220FFF739FC002827
:100F90003FF4ECAD00F0BCFF00283FF4E7AD0024C7
:100FA000A046244B9B68A34258D91F2C11D8149BF0
:100FB00001330ED024F003031CAA134453F8203C41
:100FC0000F93404604220FA9043401F07DFE8046B1
:100FD000E7E7204600F060FF0F90F2E764210EA8DB
:100FE00000F012FF044600287FF4C0AD0220FFF796
:100FF00007FC00283FF4BAAD0E9BA046DFF83CA0EA
:1010000003F003090E99A1EB0901A14218D9214669
:1010100004230FAA504601F0A5FD404604220FA963
:1010200001F052FE04348046ECE700BFF5A800084A
:101030000DA90008002200207C230020D0220020DF
:10104000B9F1000F0AD04B460FAA624801F08AFDA1
:1010500040464A460FA901F037FE80464046FFF75A
:10106000D7FBCDE5002364210FA80F9300F0CCFE41
:1010700000287FF47BAD0220FFF7C2FB00283FF47D
:1010800075AD0F9800F03AFFE9E7002364210FA83F
:101090000F9300F0B9FE00287FF468AD0220FFF73F
:1010A000AFFB00283FF462AD0F9800F029FFD6E7B0
:1010B0000220FFF7A5FB00283FF458AD00F038FFF1
:1010C000CDE70220FFF79CFB00283FF44FAD0FA9AE
:1010D000142000F033FF0890FFF79AFB08990FA83F
:1010E00000F09CFE8CE5322000F07AFE041EFFF634
:1010F0003DADA3077FF43AAD374A04EB0B0392688A
:1011000093423FF633AD0220FFF77AFB00283FF40D
:101110002DAD24F003045C44A3453FF471AD584663
:101120000BF1040B00F0B8FEFFF772FBF4E74FF48D
:101130007A70FFF765FB00283FF418AD00F0E8FE79
:10114000002845D0149B01330BD0082214A900209D
:1011500000F0B2FF00283BD02022FF2114A800F0AD
:10116000A3FFFFF75FFB1D4806F00CFD1DB0BDE8B7
:10117000F08F002F3FF4FAAC049B03F00B030B2B12
:101180007FF4F4AC002364210FA80F9300F03CFE21
:10119000044600287FF4EAAC0220FFF731FB8046CA
:1011A00000283FF4E3ACFFF73DFB41F2883006F046
:1011B000E9FC0F9801F00EF84746254600F0C0FF05
:1011C00074E407461CE54FF0000BCFE405944EE5B0
:1011D0003C464CE5D022002000220020A0860100E1
:1011E0007047000070470000704700007047000023
:1011F0002DE9F04100F58037044616463B7C5BB98B
:10120000C0681030204400F01DFFE5683544B5F596
:10121000004FE56002D816B1BDE8F081DEB905F0F7
:101220007F0605F110000021C6F180062044F6B2C9
:1012300032462E4400F038FFA06804F11008324610
:1012400000F10060414600F5003007F04BF930B97D
:1012500001233B74E0E74FF400463546ECE7A26813
:1012600005F11001404632442144A260E268521B5D
:10127000E26000F0E7FE0220BDE8F04100F0AABE07
:10128000183000F0E9BC000010B5044609F048FA37
:10129000204610BD10B5044609F042FA204610BDA4
:1012A000C3B280B2A3F14102052A02D8373800B296
:1012B0007047613B052B94BF57383038F7E7000083
:1012C000F8B504461546084603220C4900F0C4FE52
:1012D000014688B908346F1C15F91100FFF7E0FFCB
:1012E000064617F911000131FFF7DAFF102940EA2D
:1012F000061004F8010BEFD1F8BD00BF1CA90008CF
:101300002DE9F04FADF53F7D0746416801222AA83F
:1013100003F0E8FD002840F08780064682468146BB
:101320001125DFF80C81DFF80CB101AB4FF48052CE
:1013300041462AA803F036FF002875D1019AB2F57C
:10134000805F71D8002A65D00446019A9442ECD29D
:10135000282D0FD008DC132D2DD01E2D39D0112DA6
:1013600013D00134A4B2F0E7322D2DD0372D2FD079
:101370002D2DF6D13B68121B08EB040138461B6982
:101380002D259847BDF80440EBE7121B022A09D926
:10139000594608EB040000F05FFE18B90234282516
:1013A000A4B2DEE718F804303A2B3DD00A2B1CBF5C
:1013B000A1461325D5E718F804300A2B34D03A2B70
:1013C00004BFA2463225CCE718F80430202BC8D041
:1013D000264618F804300A2B1AD1AAEB090208EBAA
:1013E000090102A811254F2A28BF4F2209F050FAFF
:1013F000A21B08EB060116A84F2A28BF4F2209F0AE
:1014000047FA3B6816AA02A9DB6838469847A8E75E
:101410001E25A6E73B68384604491B69984701200A
:101420000DF53F7DBDE8F08F0020F9E7FAAB00082D
:101430008824002020A9000800F1180110B50446F6
:1014400086B00846019100F0F1FB2046FFF758FFF7
:1014500060B1019902A800F049FC102204F10801D2
:1014600002A809F091F9B0FA80F0400906B010BD69
:1014700070B504460025EEB2304600F01BFD58B1B1
:1014800000213046013500F025FD08B9002070BD6F
:10149000022000F09FFDEEE72046FFF731FF002815
:1014A000F4D004F58034207C80F00100EFE70000E8
:1014B000F0B5C9B007F0C4FA01F0B0FD18B90025C5
:1014C000284649B0F0BD69462A4803F02DFF0028A0
:1014D0004BD1294C204603F057FF284803F054FF16
:1014E000274803F051FF2146224803F0C9FF002896
:1014F000E5D1702009F018F9064610B1214B44607F
:101500000360336830469B689847054600282ED014
:101510001A4F1948394603F0B3FF05460028CED1CB
:10152000194809F001F9044638B1184B47600360C7
:1015300000F58033C0E902551D74236820469B687E
:101540009847054628B10E490C4803F099FF00283A
:10155000B5D1336830465B6898471CB12368204694
:101560005B68984701F042FDAAE70025FAE70446C8
:10157000EFE700BF24A9000834A900084BA9000820
:1015800061A9000884A9000814000100A0A90008AE
:101590002DE9F04FD44A8DB00B68D0F804A0019328
:1015A0001A440368D14E1A44D1F81C90DFF8B4C332
:1015B000DFF8B4B3D0E90234634003EA0A036340BE
:1015C00013444A6802920AEB7363029CC84A22449D
:1015D000C468224484688AEA04051D4065401544B5
:1015E0008A68039203EB3555039CC24A22448468FF
:1015F00022448AEA03042C4084EA0A041444CA6898
:1016000005EBF4340492164483EA05022240564462
:101610005A4032440E69059604EBB222059FB64E3D
:101620003E441E4485EA040313406B4033444E6934
:10163000069602EB7363069FB04E3E442E4484EA46
:1016400002051D40654035448E69079603EB35550C
:10165000079FAB4E3E44264482EA03042C4054408C
:101660003444A84E4E4405EBF434164483EA050294
:1016700022405A4032440E6A089604EBB222089F78
:10168000A14E3E441E4485EA040313406B4033449C
:101690004E6A099602EB7363099F9C4ED1F830E0C5
:1016A0003E44D1F83880F3442E4484EA02051D40BC
:1016B000654035448E6AA6F5244703EB35550A96F6
:1016C0004F3F274482EA03042C4054403C44CF6AF5
:1016D0000B9705EBF4340B9E8D4F3744029E174455
:1016E00083EA050222405A403A448A4F774404EB89
:1016F000B2221F4485EA040313406B403B444F6B06
:10170000BC4402EB7363654484EA020C0CEA030CEC
:101710008CEA040C6544DFF854C2C44403EB35552D
:10172000A44482EA03042C4054406444D1F83CC0F1
:10173000794905EBF4346144114483EA05022240FF
:101740005A400A44754904EBB2223144079E1944B9
:1017500084EA02032B4063400B44714902EBF363BC
:1017600031440B9E0D4482EA03012140514029443B
:101770006C4D03EBF1513544019E254483EA01048D
:1017800014405C402C44684D01EBB4443544069E43
:10179000154481EA04021A404A402A44634D04EB8E
:1017A000323235440A9E1D4484EA02030B406340F2
:1017B0002B445F4D02EBF3633544059E0D4482EAF2
:1017C00003012140514029445A4D03EBF151654436
:1017D000254483EA010414405C402C44564D01EB3F
:1017E000B4443544099E154481EA04021A404A4033
:1017F0002A44524D04EB32323544049E1D4484EA9F
:1018000002030B4063402B444D4D02EBF363454410
:101810000D4482EA0301214051402944494D03EB24
:10182000F1513544089E2C4483EA010515405D4082
:101830002C44454D01EBB4443544039E2A4481EACF
:1018400004051D404D402A44404D04EB32323D44D6
:101850002B4484EA020593440D4065402B443C4DE3
:1018600002EBF3633544069E294482EA03052540D2
:1018700055402944374D03EBF1514D442C4483EA44
:10188000010515405D40254401EBB54581EA05049D
:1018900004EA03024A405A44A6F5B82B089E05EB19
:1018A0003232ABF2BE6B54405B4423442A4C344486
:1018B00002EB33730B9E0C4485EA0201594021442C
:1018C000264C344403EB7151029E254482EA030402
:1018D0004C402544224C444401EB3545144483EAF2
:1018E00001026A40224443E078A46AD7EECEBDC12B
:1018F00056B7C7E8DB702024AF0F7CF52AC68747B0
:10190000134630A8019546FDD8988069AFF7448BFF
:10191000BED75C892211906B2108B44962251EF65E
:1019200040B340C0515A5E26AAC7B6E95D102FD613
:101930005314440281E6A1D8C8FBD3E7E6CDE121E8
:10194000D60737C3870DD5F4ED145A4505E9E3A949
:10195000F8A3EFFCD9026F6781F6718722619D6D54
:101960000C38E5FD937198FD8A4C2A8D8E4379A63B
:10197000934C344405EB7222059E1C4481EA050316
:10198000534023448F4C344402EB33730A9E0C447F
:1019900085EA0201594021448B4C4C4403EB7151C0
:1019A000254482EA03044C402C44884D354401EB25
:1019B0003444019E154483EA010262402A44844D66
:1019C0003D4404EB72221D4481EA040353402B443E
:1019D000804D354402EB3373049E294484EA0205AA
:1019E0005D4029447C4D354403EB7151079E2544ED
:1019F00082EA03044C402C44784D354401EB3444D6
:101A0000099E2A4483EA010565401544744A32441C
:101A100004EB7525039E134481EA04026A401A44CC
:101A2000704B734405EB32720B4484EA050151405C
:101A300019446D4B634402EB71511C4485EA020367
:101A40004B401C44694B334401EB3444019E1D441C
:101A500082EA010363402B44654D04EB7323354454
:101A6000069E154463EA010262402A44614D03EB7D
:101A7000B2624D4462EA040929445F4D89EA0309D0
:101A8000454449442C445D4D02EBB1513544049E1C
:101A900061EA03081D4488EA0208444401EB7444E7
:101AA00064EA02034B402B44554D04EBF323754489
:101AB00063EA010E15448EEA040E0EEB0502514D49
:101AC00003EBB262354462EA040E29440A9D8EEAB1
:101AD000030EA5F580164C4D7144A6F6833602EB35
:101AE000B151264461EA030454403444029E01EBA0
:101AF0007444354464EA02061D444E407319089E3E
:101B0000424D04EBF323354463EA01061544664075
:101B100072193F4D03EBB262654462EA0406294440
:101B20003C4D5E403144079E02EBB151354461EAC1
:101B300003062C44384D56403D443444059E1D4414
:101B400001EB744464EA02034B402B44334D04EB35
:101B5000F32335440B9E154463EA010262402A4494
:101B60002F4D03EBB2623544039E0D4462EA04013B
:101B7000594029442B4D02EBB15135442A4E25449E
:101B800061EA030454402C44099D01EB74442E4443
:101B900064EA02051E4485EA01039D1903681A449C
:101BA0000AEB040303EBF5230260436083681C44E3
:101BB000C36819448460C1600DB0BDE8F08F00BFF8
:101BC00044EABEA4A9CFDE4B604BBBF670BCBFBEDF
:101BD000C67E9B28FA27A1EA8530EFD4051D88042C
:101BE00039D0D4D9E599DBE6F87CA21F6556ACC4A0
:101BF000442229F497FF2A43A72394AB39A093FCEE
:101C0000C3595B6592CC0C8FD15D84854F7EA86FE4
:101C1000E0E62CFE144301A3A111084E827E53F787
:101C200035F23ABDBBD2D72A91D386EB094B03607C
:101C300003F18833436003F12943A3F59613A3F618
:101C40008B638360A3F18833C3600023C0E904334E
:101C5000704700BF012345672DE9F8431446026928
:101C600005460E46E300C2F3C50800F118079B18AD
:101C7000036122BF43690133436112F4FC7F43696E
:101C800003EB5473436114D0C8F1400907EB08001B
:101C90004C4504D22246BDE8F84308F085BD403CDF
:101CA0004A464E4408F080FD444439462846FFF732
:101CB0006FFCA04606EB0409B8F13F0FA9EB080141
:101CC0000AD94022384608F06FFD39462846A8F167
:101CD0004008FFF75DFCEFE7A1096FF03F023846CF
:101CE00002FB014206EB8111D5E7000070B50B69DC
:101CF00001F1180506460C46C3F3C503EA18501C4B
:101D00008022EA54C3F13F02072A1FD8002100F0C5
:101D1000CBF929462046FFF73BFC38220021284614
:101D200000F0C2F92369294620462365636963658B
:101D3000FFF72EFC21461022304608F035FD2046E4
:101D400058220021BDE8704000F0AEB9C3F137025F
:101D50000021E5E72DE9F84F4FF47A7306460D466A
:101D6000002402FB03F7DFF85080DFF8509098F969
:101D700000305FFA84FA5A1C01D0A34212D159F8FC
:101D800024002A4631460368D3F820B03B46D847A2
:101D9000854207D1074B012083F800A0BDE8F88FEA
:101DA0000124E4E7002CFBD04FF4FA7005F0EAFEC2
:101DB0000020F3E7CC340020102200201422002061
:101DC00070B504464FF47A76412C254628BF41254C
:101DD00006FB05F005F0D6FE641BF5D170BD0000D2
:101DE000002307B5024601210DF107008DF80730E9
:101DF000FFF7B0FF20B19DF8070003B05DF804FBCA
:101E00004FF0FF30F9E700000A46042108B5FFF75C
:101E1000A1FF80F00100C0B2404208BD074B0A4656
:101E200030B41978064B53F8214001462368204608
:101E3000DD69044BAC4630BC604700BFCC340020A9
:101E400014220020A086010070B5104C0025104E11
:101E500006F0ECFA20803068238883420CD80025F5
:101E60002088013806F0DEFA23880544013BB5F5E9
:101E7000802F2380F4D370BD06F0D4FA3368054474
:101E80000133B5F5003F3360E5D3E8E7CE340020F9
:101E90008834002006F098BB00F1006000F50030A7
:101EA0000068704700F10060920000F5003006F015
:101EB00019BB0000054B1A68054B1B889B1A83420F
:101EC00002D9104406F0AEBA0020704788340020D2
:101ED000CE34002038B50446074D29B12868204487
:101EE000BDE8384006F0B6BA2868204406F0A0FAEB
:101EF0000028F3D038BD00BF883400200020704790
:101F000000F1FF5000F58F10D0F800087047000076
:101F1000064991F8243033B100230822086A81F879
:101F20002430FFF7BFBF0120704700BF8C34002072
:101F3000014B1868704700BF0010005C194B013856
:101F40000322084470B51D68174BC5F30B042D0C14
:101F50001E88A6420BD15C680A46013C82421346A9
:101F60000FD214F9016F4EB102F8016BF6E7013A96
:101F700003F10803ECD181420B4602D22C2203F874
:101F8000012B0424094A1688AE4204D1984284BF2A
:101F9000967803F8016B013C02F10402F3D1581A60
:101FA00070BD00BF0010005C1C220020E0A90008EA
:101FB000022803D1024B4FF400129A61704700BF10
:101FC00000180258022802D1014B20229A61704762
:101FD00000180258022804D1024A536983F02003F2
:101FE00053617047001802580FB4124B30B51A787D
:101FF000B5B042B90122104910481A704FF461433C
:102000000B6004F0FBFE39AB0C4C389AC82102A8D7
:10201000019301F04BF82368C8280246DD6902A944
:10202000074B28BFC8222046A84735B0BDE830403E
:1020300004B07047D0340020D4340020E8390020A8
:10204000A0860100002310B5934203D0CC5CC45499
:102050000133F9E710BD0000013810B510F9013F58
:102060003BB191F900409C4203D11AB10131013AD0
:10207000F4E71AB191F90020981A10BD1046FCE758
:102080000138013910F9013F11F9012F0BB19342C9
:10209000F8D0981A7047000003460246D01A12F989
:1020A000011B0029FAD1704702440346934202D033
:1020B00003F8011BFAE770472DE9F8431F4D14465A
:1020C0000746884695F8242052BBDFF870909CB3F1
:1020D00095F824302BB92022FF2148462F62FFF7C4
:1020E000E3FF95F824004146C0F1080205EB8000AB
:1020F000A24228BF2246D6B29200FFF7A3FF95F86E
:102100002430A41B17441E449044E4B2F6B2082EB7
:1021100085F82460DBD1FFF7FBFE0028D7D108E06B
:102120002B6A03EB82038342CFD0FFF7F1FE002836
:10213000CBD10020BDE8F8830120FBE78C340020E0
:10214000024B1A78024B1A70704700BFCC34002043
:102150001022002038B51A4C1A4D204604F0F0FE2B
:102160002946204604F018FF2D684FF47A70D5F800
:102170009020D2F8043843F00203C2F80438FFF785
:102180001FFE1149284605F015F8D5F890200F4D8F
:10219000D2F80438286823F002030D49A042C2F89F
:1021A00004384FF4E1330B6001D004F027FE686877
:1021B000A04204D00649BDE8384004F01FBE38BD37
:1021C0000841002008B3000810B3000814220020C2
:1021D000B43400200C4B70B50C4D04461E780C4BEB
:1021E00055F826209A420DD00A4B00211822184695
:1021F000FFF75AFF0460014655F82600BDE870401D
:1022000004F0FCBD70BD00BFCC34002014220020BF
:1022100008410020B434002080697047C0697047CD
:10222000006A7047406A7047806A7047F0B5ADF247
:10223000044D0E46054600214FF47F7201A800911F
:10224000FFF732FF2C6A744301362B6A7343A342B3
:1022500016D92B686A46214628465F684FF480638A
:10226000B84770B16A464FF4806312F8011BFF292A
:102270000AD1013B9BB2002BF7D104F58064E4E75F
:1022800001200DF2044DF0BD0020FAE780680368DC
:10229000DB69184730B5456A85B004468D420FD3D7
:1022A0000568CDE90023026A03ABAD6A5143A84734
:1022B00020B1206A039BC31A5842584105B030BD73
:1022C0000020FBE7F0B5C56987B004468D4212D304
:1022D0000C9F866905687143CDE9013705AB009312
:1022E0006D69036AA84720B1A069059BC31A5842CB
:1022F000584107B0F0BD0020FBE70000F0B56623B1
:1023000089B0002405464FF480768068079403A9BD
:10231000CDE90336CDE9054403685B699847A868B1
:1023200022462146036800941F692346B847A868DF
:102330009923079403A9CDE90336CDE90544036841
:102340005B699847A86822462146036800941D6986
:102350002346A84709B0F0BD254B2DE9F04F1B7867
:102360009FB0002504468DF828304FF09F0E8068FE
:102370004FF00123ADF8295005A90995CDE905E3F2
:10238000CDE9075503685B699847A0680322294691
:10239000036800922A461E690AABB04730B394F82E
:1023A0008C200C21134B01FB02339DF828101A7965
:1023B00091421BD19DF829205B799A4216D1A068E1
:1023C0004FF05A0C0C4B082605A90996CDE905C318
:1023D000CDE9075503685B699847A0682A462946F6
:1023E000036800961F690AABB84738B900204BE173
:1023F000B8A8000898AA0008002500010422B349E3
:102400000AA808F0C1F905460028EFD1BDF82C3024
:102410006FF48277A3813B44012BE7D8079605A987
:10242000CDE90A00A06803685B699847A0682A465E
:102430002946036800961E690AABB0470028D5D02C
:10244000DDE90A361A0202F4706242EA1662FF2AD5
:10245000CCD11B0E26F07F4650222946142B266134
:102460000AA828BF1423A373FFF71EFEA0680796CF
:1024700005A903685B699847A068A37B29460268A1
:102480009B0000930AAB16692A46B0470028ADD0DE
:102490000B990029AADBC9086FF07E43149D4FF009
:1024A000010E994228BF1946C5F303130EFA03F231
:1024B00021FA03F303916161A261E361002B95D0DE
:1024C0002646A44600274FF002081EAAC7F346037B
:1024D00002EB830353F834AC07F001031B01DA1D50
:1024E0000EFA03F908FA02F2A2EB090202EA0A0262
:1024F000DA401AD003F108090F330EFA02F2216A0A
:1025000008FA03F30EFA09FBCCF830208A42A3EB59
:102510000B0B0BEA0A0A2AFA09F98CF82C90A36A29
:1025200088BF2262934288BFA26201370CF1100C6F
:10253000042FCAD1236A4FF0020C039A4FF0010E08
:10254000139F9A4224BFB2FBF3F1616207F00F01BF
:1025500038BF01234FF0090201F1010138BF636266
:102560004900336B33B3531C0EFA02F8A2F105098C
:102570000CFA03F30EFA09FAA3EB080302F1FF3891
:102580000CFA08F83B40A8EB0A08D34008EA070811
:1025900028FA09F87BD0012B7BD0022B7BD0032BB0
:1025A00008BF4FF47A735FFA88F808FB033373634C
:1025B0004B43B36307321036252AD2D115F0C04FF2
:1025C000C5F3417369D0012B69D0022B0CBF4FF4C6
:1025D0007A634FF47A43C5F3046202FB0333E36684
:1025E0004B432367199B9E075CD0062384F8743005
:1025F00015F4005F05F00F03C5F3042514BF402256
:102600000822013305FB02255B00A5675D430A9B99
:102610009F02E5677FF5EAAE0C9BC3F30722C3F385
:10262000421103F01F0384F8802084F8881084F896
:102630008130002A3FF4DAAE189BC3F3025213F440
:10264000401F84F883207FF4D1AEDE0602D5042A31
:102650007FF4CCAE03F40072002A14BF01220022E2
:1026600084F8872004D0DD0324D5002384F8893042
:10267000179B1A0722D5002384F88630702384F82C
:102680008530012384F88D301FB0BDE8F08F012321
:1026900089E7102387E7802385E710239BE74FF422
:1026A000807398E7590701D550239FE713F0780FFF
:1026B0009ED09BE69903DBD50123D7E75B07E0D5E6
:1026C000012384F886300523D9E700BFF0A900086C
:1026D00030B58BB000240546806803924FF001228C
:1026E000059105A9CDE90624CDE90844026852699F
:1026F0009047A8680121039B026800912146156953
:102700002246A8470BB030BD13B50446A068036845
:10271000DB6C98470028F9D10DF1070294F8851079
:102720002046FFF7D5FF94F886309DF807001BB1CF
:1027300000F0010002B010BDC043C0F3C010F9E7C3
:1027400030B54FF001238BB00024054680688DF82A
:102750000F20059105A9CDE90634CDE908440368A9
:102760005B699847A86801220DF10F010368009486
:102770001D692346A8470BB030BD0000F7B51746CA
:102780000DF1070206461D46FFF7A2FF68B19DF84E
:10279000074039469DF82020304624EA05042A40A7
:1027A00022438DF80720FFF7CBFF03B0F0BD0000F8
:1027B00030B54FF4807389B00024054680680391DA
:1027C00003A9CDE90434CDE9064403685B69984761
:1027D000A86822462146036800941D692346A8473D
:1027E00009B030BD10B5044623682046DB6A98471F
:1027F0000028F9D110BD000010B590F874300446DF
:102800005BB1FFF7EFFF012394F87410204684F8C2
:102810008E30BDE81040FFF7CBBF012010BD000097
:1028200010B590F87430044653B1FFF7DBFF012375
:102830002046042184F88E30BDE81040FFF7B8BF71
:10284000012010BDF0B590F883308BB00446042B06
:1028500050D100270DF10E0205218DF80E708DF874
:102860000F70FFF735FF00282FD00DF10F02352133
:102870002046FFF72DFF40B320461F4EFFF7BCFF59
:102880002046FFF7AFFF05AD0FCE0FC5336805A992
:102890009DF80E202B609DF80F30A06843F00203D6
:1028A0008DF810208DF80F308DF8113003685B69BA
:1028B0009847A068022204A9036800971D693B4657
:1028C000A84720B92046FFF7ABFF002010E02046C4
:1028D000FFF7A6FF0DF10F0235212046FFF7F8FEA6
:1028E0000028F2D09DF80F309B07EED501236360DE
:1028F0000BB0F0BD0120FBE7BCA800082DE9F341B7
:10290000002304468068A36010B103685B689847A1
:102910000025264E264F0C2301A839465FFA85F87C
:102920006B439A5900F072FA019BA0680022A360E1
:10293000019210B103685B689847019810B1036871
:102940005B689847A368E3B141F2883084F88C80D3
:1029500005F018F92046FFF7D1FC1E2005F012F90A
:102960002046FFF7F9FC054688B994F88C300C2214
:1029700010485343F158FFF737FB284602B0BDE833
:10298000F0810135032DC6D10B4800F0BDFB204678
:10299000FFF758FF0C2294F88C3005465343F1584A
:1029A00008B90648E7E70648E5E700BF98AA000827
:1029B000EC340020F8A900086EAA000822AA00083A
:1029C0004CAA00082DE9F041044688B00F4616468F
:1029D000FFF712FF2046FFF705FF0025C722A0687A
:1029E0004FF48073079503A9CDE90323CDE905557D
:1029F00003685B699847A0682A46294603680095E2
:102A0000D3F810802B46C047054630B92046FFF763
:102A100007FF284608B0BDE8F081E36E3B60236FF6
:102A20003360F3E72DE9F041002588B01F460446E6
:102A30000E460E9B00F1400CA8463D60016B81B133
:102A4000A9420ED391420CD8B6FBF1FE01FB1E61E8
:102A500039B9416B90F82C800F9D1960816B29600A
:102A6000154610306045E9D16DB3AB1962699342E8
:102A700029D82046FFF7C0FE2046FFF7B3FE4FF4EB
:102A80001453A06803A9CDF80C80CDE904360026C4
:102A9000CDE9066603685B699847A068324631460F
:102AA00003680096D3F810803346C0470646204698
:102AB0002EB9FFF7B5FE304608B0BDE8F081FFF74C
:102AC000AFFE3D60F7E70026F5E700002DE9F04195
:102AD0008669054688B00F46B3429046B1FBF6FCC6
:102AE00006FB1C1C28BF3346A6EB0C0C00269C459D
:102AF000644628BF1C46FFF77FFE2846FFF772FE9C
:102B00000222A86803A9164B0597CDE90323CDE956
:102B1000066603685B699847A868224641460368D1
:102B200000961F693346B847064628462EB9FFF778
:102B300077FE304608B0BDE8F081FFF771FE0E9BCE
:102B40001C60AB6FAA696343B3FBF2F30F9A136087
:102B5000EA6F109B5443AA69B4FBF2F41C60E8E7E7
:102B6000002500012DE9F04FCE18436989B00446D5
:102B70009E420F46914639D83D464FF40458DFF83F
:102B800078A0FFF72FFEAE4234D994F88030A6EB40
:102B9000050B94F8882003A903930023BBF5806FED
:102BA000A0680693636828BF4FF4806B0595012BDE
:102BB00014BF43465346012A049394F8813008BF5A
:102BC00003F1FF33079303685B699847A068A9EB9B
:102BD00007030268CDF800B02B44D2F810B00022F1
:102BE0001146D84718B105F58065CCE7002009B03B
:102BF000BDE8F08F0120FAE700ED0003F0B50446D0
:102C000089B00E46FFF7EEFD94F887502DB194F889
:102C100089302BB1012B24D00025284609B0F0BD06
:102C200094F880300393F02306934FF404530493F5
:102C30006368012B04BF1D4B04930023059394F894
:102C40008130A06803A9079303685B699847A0686F
:102C5000314603689B6998470546642004F092FF5B
:102C6000DBE720460027FFF7C7FD2046FFF7BAFD48
:102C700008238122852120460097FFF77FFD054626
:102C800018B92046FFF7CCFDC7E794F880300697C7
:102C90000393074B04936368012B04BF054B049314
:102CA0000023059394F88130013BCAE700ED00034F
:102CB0000021001000ED0013014B024A1A6070471A
:102CC000EC340020C0AB000830B50A44084D9142F6
:102CD0000DD011F8013B5840082340F30004013B9C
:102CE0002C4013F0FF0384EA5000F6D1EFE730BD2B
:102CF0002083B8ED70470000704700000020704747
:102D00000020704713B56C4600F1140384E80600F8
:102D100094E8030083E8050002B010BD002070476E
:102D200013B56C4600F10C0384E8060094E8030038
:102D300083E8050002B010BD0023C0E903337047EB
:102D400082B002AB03E9060002B070477047000092
:102D50000020704770470000002070470020704737
:102D60000120704782B0002002A901E90C0002B0E6
:102D7000704700000020704700207047036B1A79ED
:102D8000034B53F832301B6A9868C0F34010704709
:102D900058AB00080B6883634B6843638B68C3635D
:102DA000CB6803640B6943647047000038B5036B5C
:102DB0000446154D1B7955F8330004F0FBFCD4E9AB
:102DC0000B231B7955F8331002F1300349689942FF
:102DD00018D000231363E26A5363D4E90B12537CC7
:102DE000581E137C92681B0443EA002313438B6331
:102DF000D4E90B131B79303155F83300BDE8384066
:102E000004F06CBC38BD00BF58AB0008F8B51D4FCE
:102E100005460E4611463868FFF732F978BB7468EC
:102E20003B7924B394F82C209A420BD02468F8E71D
:102E30000122B52100F072F9736823603B79746058
:102E400084F82C30482007F06FFC68B10022027132
:102E5000C0E90322C0E90522027A42F007020272A9
:102E6000094AC0E90B47026028602846F8BD4020A7
:102E700007F05AFC04460028DAD12C60F5E700235D
:102E80002B60F2E7F434002068AB0008044B10B567
:102E900004460360406A08B107F044FC204610BDB8
:102EA0000CAB000810B50446FFF7F0FF204607F012
:102EB00037FC204610BD000008B519B1FFF776FFBA
:102EC000012008BD036B1A79024B53F8320004F05D
:102ED00075FCF5E758AB00082DE9FF41DDF82880C7
:102EE0000546174603911FFA88F60293FFF75EFF27
:102EF00002ABBAB203A9E86A009600F023F90446CF
:102F000038B900212846FFF7D7FF204604B0BDE8B6
:102F1000F081AFB92B6B05F134011A79134B53F8DB
:102F20003200B8F1000F19D104F0E6FB80F0010483
:102F3000E4B23346E86ADDE9022100F029F9E0E76E
:102F4000029B83B92B6B3A46084805F134011C7982
:102F5000039B50F8340004F0E5FBE7E7029B424690
:102F600004F0F6FBE2E70024E3E700BF58AB0008FB
:102F700013B504460191FFF719FF019A236B04F181
:102F800034011879054B53F8300004F0F7FB0021A9
:102F90002046FFF791FF012002B010BD58AB00089A
:102FA00010B50446FFF702FF236B1A79054B53F85F
:102FB000320004F0F1FB00212046FFF77DFF0120E5
:102FC00010BD00BF58AB0008054B064A1A6000222E
:102FD0001A719A60044ADA6040F21F121A8270472E
:102FE000F43400208FAA000800E1F50510B5084C64
:102FF00001220849002001F051FF23783BB1064827
:1030000003F074FE044803F0A7FE0023237010BDF4
:1030100008350020CCAB0008903700201D482DE972
:10302000F041036D2BB901224FF48051503005F06F
:103030004BFD194E33780BB1FFF7D8FF0324174F20
:103040004FF00008134D15492846C7F8048003F0D7
:1030500075FE284603F0AEFC48B1013C284603F05B
:103060007BFE14F0FF04EED1204634700FE00C49D3
:1030700001220C4801F012FF014618B1284603F066
:1030800035FEEAE7084800F013F801203070BDE88B
:10309000F08100BF90370020083500203422002046
:1030A000CCAB00080C350020D0AB000802F050BDBE
:1030B0000FB4002004B0704700B59BB0EFF3098156
:1030C00068226846FEF7BEFFEFF30583014B9B6B5A
:1030D000FEE700BF00ED00E008B5FFF7EDFF0000E0
:1030E00000B59BB0EFF3098168226846FEF7AAFF9E
:1030F000EFF30583014B5B6BFEE700BF00ED00E0E3
:10310000FEE70000FEE700000FB408B5029804F0E7
:10311000A1FCFEE705F07EBB05F056BB38B5084BB9
:1031200004461546017543600A21243005F0CCFCA5
:1031300004F128002A460A2105F0C6FC204638BDC5
:1031400004AC0008F8B51E461B6805460C46174639
:103150001BB9236863B9012408E0BDF81820314683
:10316000806A05F0C9FC0028F3D100242046F8BD90
:1031700021463A46686A05F0F5FC04460028EAD183
:103180003368002BF1D0A86A05F020FDEEE70000BF
:1031900038B50D46114604461A4611B1806A05F04D
:1031A000D3FC2DB12946606ABDE8384005F006BD64
:1031B00038BD0000036800211B68184703790BB174
:1031C000002202711846704703685B6818470000C8
:1031D00003791BB90123037118467047002070471B
:1031E0007047000010B5044607F09AFA204610BD5B
:1031F0000068704703460068596870470B0A017001
:1032000043700B0C090E8370C1707047110A027075
:1032100003714170110C120E8170C2701A0A427152
:103220001A0C1B0E8271C37170470000C36A023909
:10323000023B8B4283BF4389006C01FB03000020EB
:1032400070470000C2F307238A76CB760378032BFE
:1032500001BF120C0A75120A4A75704700F10B0182
:103260000022D30143EA520310F8012B52FA83F3F0
:103270008842DAB2F5D110467047000010B54178A7
:1032800004460020013102464901022A16BFA35C10
:10329000032203EBC03302F101021EBF9BB203EB1A
:1032A000500398B29142F0D810BD000002684AB1B4
:1032B000134613F8011B1F290DD93A29F9D1911C86
:1032C0008B4202D04FF0FF3070471278302AF9D18C
:1032D000036000207047014B187870475C3700206E
:1032E00038B50D46044618B9092000232B6038BDB7
:1032F0000368002BF8D01A78002AF5D08188DA8884
:103300009142F1D1587804F0C9FD10F00100EBD1E1
:103310002368EBE738B50D4640F25231144602F00F
:10332000B9F9FF2807D9012C0BD9030A02246870C8
:103330002B70204638BD30B1002CFAD00124287003
:10334000F7E70024F5E70446F3E700002DE9F8432A
:103350000026D0F8008005460C468E76836B002B45
:103360004AD098F80030042B4BD1334635464027DD
:1033700020E0B7F5187F80F0C480F90606F1010659
:1033800008BF0237D05B02372BB900F5205292B24A
:10339000B2F5006F0DD305F11A01C5F1FF0240EA45
:1033A00003402144FFF7B6FF002800F0AA8005443F
:1033B00000200346D8F8102092F82310B142D8D844
:1033C000002B40F09E80002D00F09B8000232544C0
:1033D000AB766373D8F81020137903F03701DB065E
:1033E00021730BD402F13800FFF704FFC4E9000198
:1033F00093896381D3892381BDE8F8830020014646
:10340000F4E7C36C01335ED1EA6B00232E26551E10
:10341000184615F8011F013020290CD0052908BFD6
:10342000E521092804D10B2B9EBFE71801337E73D9
:10343000E718013379730B28EBD1E11800204873AA
:10344000A17E00294BD1002B40D06FF00C0604F177
:103450000D000825361B331810F8011B002938D041
:103460002E298BB24AD0A3F14101192903D8117B2F
:103470000D4200D020330373EDE7B9F1000F05D101
:1034800000F520539BB2B3F5006F0BD307F11A017F
:10349000C7F1FF0240EA09402144FFF73BFF48B172
:1034A0000744002002368146D8F80C30985B00288B
:1034B000E3D13846B9F1000F4FF0000218BF0020E9
:1034C00023189A76A0E7B1463746EDE73F23A37667
:1034D0000123234400219976137B03B96373D37AC4
:1034E00002F11C0003F03F0323730023FFF780FE6B
:1034F00020606360D38A6381138B7CE710250B46C1
:10350000B9E73F230125A37660E7000038B50546FB
:10351000002435F8020B08B9204638BD02F0EEF859
:103520006308C2B203EBC43312FA83F39AB2C0F356
:10353000072303EB520303EBC2339CB2E9E700001D
:1035400037B5C37804461BB90025284603B030BD03
:1035500000F14C01826C01234078019104F0C4FC1D
:10356000054680B9A36BE070A06C226BC31A93422E
:10357000EAD2A3780199022BE6D1024401236078B4
:1035800004F0B2FCE1E70125DFE7000038B5836C09
:1035900005460C468B4210D0FFF7D2FF60B9224699
:1035A000012305F14C01687804F07AFC00281CBF67
:1035B0004FF0FF340120AC6438BD0020FCE7000070
:1035C00038B500230446C3704FF0FF338364FFF720
:1035D000DDFF00284BD1B4F84A524AF655239D42EC
:1035E00007D10B22254904F14C0007F0CDF8002843
:1035F0003FD094F84C30EB2B03D01833DBB2012BC7
:103600002ED84AF655239D4206D108221C4904F1C2
:103610009E0007F0B9F848B3B4F85730B3F5007F0F
:103620001ED194F85930DBB15A1E1A4218D1B4F8A1
:103630005A30ABB194F85C30013B012B10D8B4F890
:103640005D306BB1B4F85F307F2B06D804F16C00AD
:10365000FFF7CEFDB0F5803F02D3B4F8623053B926
:103660004AF6552085420CBF0220032038BD0420B5
:10367000FCE70120FAE70020F8E700BF1CAC0008D7
:1036800028AC000802392DE9F04701F007044FF09B
:10369000010A466C05460AFA04F41746984606EBFA
:1036A0001136C1F3C809E4B2314628460136FFF7A6
:1036B0006DFF18B10120BDE8F087994605EB0902BE
:1036C00092F84C30234214BF01210021414513D010
:1036D0006340013F82F84C3085F803A0EBD06400D2
:1036E00014F0FF04EAD109F1010301244FF00009AD
:1036F000B3F5007FE1D1D7E70220DCE701290246DC
:10370000F8B50C4640F28C800668F36A8B4240F2B2
:1037100087803378013B032B00F28280DFE803F0DF
:103720000229384B04EB5405B16B304601EB5521AF
:10373000FFF72CFF10B14FF0FF30F8BD6F1CC5F341
:103740000805B16B3046354401EB572195F84C50D4
:10375000FFF71CFF0028EED1C7F30807E3073E443C
:1037600096F84C0045EA00204CBF0009C0F30B005E
:10377000E3E7B16B304601EB1421FFF707FF0028A8
:10378000D9D1640004F4FF742644B6F84C00D4E7A1
:10379000B16B304601EBD411FFF7F8FE0028CAD117
:1037A000A40006F14C0004F4FE742044FFF720FD51
:1037B00020F07040C1E7D0E90430D57953EA000128
:1037C00001D0916801B95DBB9168022DA4EB0101A4
:1037D0000DD1013B728940F1FF305B0A43EAC053CF
:1037E000B3FBF2F399421BD81CD0601CA5E7032D54
:1037F00002D193698B42F8D8D3699BB9B16B30463B
:1038000001EBD411FFF7C2FE002894D1A0004C3682
:1038100000F4FE703044FFF7EBFC20F000408CE732
:1038200001208AE76FF0004087E70000F8B50668DE
:1038300004460D463378042B0CBF4FF080524FF4F2
:1038400000128A4201D80220F8BDCA06FBD1826864
:103850000163D2B9022B13D83389B3EB551FF2D9C8
:10386000F36BA363A36B6263002BECD003EB5523D4
:103870004C36C5F308050020A3633544E563E3E750
:10388000F36BC271002BE7D01A4677897F02BD42E5
:10389000114604D23046FFF7C9FCA063E2E7204698
:1038A000FFF72CFF431C024606D00128CBD9F36A50
:1038B0008342C8D9ED1BEAE70120C5E701292DE9BC
:1038C000F04706460C46174608D9C36A8B4205D90D
:1038D0000378022B62D003D8012B22D0022552E0BC
:1038E000033B012BFAD8816B01EBD411FFF74EFE9D
:1038F0000546002847D1A40006F14C0304F4FE74E9
:103900001C443378042B07D0204627F07047FFF77C
:103910006FFC00F07040074339462046FFF76EFC0D
:103920002FE001EB5108816B01EB5821FFF72EFED0
:10393000054640BB14F0010406F14C0908F1010AE8
:10394000C8F3080808BFFBB230461FBF19F808309B
:1039500003F00F023B0103F0F00318BF134309F813
:1039600008300123B16BF37001EB5A21FFF70EFE13
:10397000054640B9CAF3080A44B1C7F3071709F866
:103980000A700123F3702846BDE8F08719F80A3061
:10399000C7F3032723F00F031F43F0E7816B01EB0D
:1039A0001421FFF7F3FD05460028ECD1640006F171
:1039B0004C0304F4FF741F551919C7F307274F7000
:1039C000DFE70000F8B504460E461746E3690BB979
:1039D0001846F8BD012BA6EB0305206814BFAA1CEE
:1039E0003A46691CFFF76AFF0028F2D1E369013B00
:1039F000E361EBE701292DE9F84306460C4617463B
:103A0000056802D80220BDE8F883EB6A8B42F9D939
:103A10007AB9A14621463046A046FFF76FFE04461C
:103A2000B0B92B78042B02D1002F43D1F7710020BD
:103A3000E9E72B78042B02D1C379022BE9D04FF0B0
:103A4000FF3239462846FFF739FF0028E1D0DAE790
:103A50000128D7D0421C01D10120D4E72B78042BB8
:103A600019D1EA6AAB69023A93421CD308F1010208
:103A7000A2420CD02B78042B08D10023A2EB090220
:103A800049462846FFF7FEFD0028BCD1A146EB6A57
:103A9000A342BFD8C5E7002241462846FFF70EFFE4
:103AA0000028DED0AFE70133AB612B7943F001038F
:103AB0002B71DBE7F3798BB9B468BC4202D10223E6
:103AC000F371B4E721463046FFF718FE012899D973
:103AD000431CC1D001348442EFD0A8E7032BA6D108
:103AE000B368BB42A3D8B2691344BB429FD3E6E795
:103AF00070B5C3790446032B06D181688369CD185C
:103B0000A94203D10023E371002070BD4E1C206840
:103B10003246FFF7D3FE0028F7D13146F0E7000028
:103B20002DE9F74305460191FFF70AFD04460028F9
:103B300049D105F14C09019928464FF40072FFF76D
:103B400075FB2146A86407464846FEF7ADFA6C8926
:103B50006402B4F5004F28BF4FF40044B4F5007F71
:103B60002FD9204604F01EFE804630B122460021A7
:103B7000640A0026FEF798FA09E06408EEE7234697
:103B8000BA194146687804F0AFF918B926446B8930
:103B90009E42F4D3404604F015FE6889801B18BF8E
:103BA000012003B0BDE8F08301366B899E42F4D258
:103BB0000123BA194946687804F096F90028F3D031
:103BC000EBE70026F1E70120EBE70000F8B504463B
:103BD000FFF7B6FC0546002842D12378032B37D1E6
:103BE0002779012F34D104F14C0601464FF40072BD
:103BF0003046FEF759FA55234122722184F84A32A1
:103C0000AA2304F50D7084F84F2084F84B32522318
:103C100084F8301284F84C3084F84D30612384F8F5
:103C2000311284F84E3084F83332A16984F832229C
:103C3000FFF7E4FA616904F50E70FFF7DFFA626BD3
:103C40003B46314601326078A26404F04DF925719B
:103C500000226078114604F06BF9003818BF01208B
:103C6000F8BD000000232DE9F0430B6085B00F463E
:103C70001546FFF71BFB061EC0F2B281804B53F8BE
:103C80002640002C00F0AE813C6005F0FE05237854
:103C90006BB1607804F002F9C70708D41DB110F0C9
:103CA000040500D00A25284605B0BDE8F0830023AE
:103CB000F0B22370607004F0DDF8C10700F1948168
:103CC0000DB14207EED400212046FFF779FC02280F
:103CD00040F099806E4604F2122304F252213246DB
:103CE00018461033FFF784FA42F8040B8B42F7D1E1
:103CF000002556F8041B00297DD02046FFF760FC04
:103D0000012879D80128A26C40F0C08004F1570343
:103D100004F18C0113F8015B002D7BD18B42F9D1AA
:103D2000B4F8B430B3F5807F74D194F8B830092B6F
:103D300070D104F19400FFF75DFA4FF0FF331718CC
:103D400041F10001BB4275EB010363D304F1A00014
:103D5000FFF74EFA94F8BA302063012BA37059D1C3
:103D600094F8B99003FA09F91FFA89F36381002BDB
:103D700050D0444B04F1A800FFF73AFA06469842A7
:103D800048D8831C626304F1A400E362FFF730FAB1
:103D900000EB020804F19C00C4F84080FFF728FA09
:103DA00010441FFA89F2A06306FB02F313EB080329
:103DB00045EB05029F4271EB02032BD32E4604F123
:103DC000AC00FFF715FAE06365B96389B34221D906
:103DD000E16B2046FFF72AFA81192046FFF7D6FB50
:103DE00098B90136631993F84C30812B14D02035E3
:103DF000C5F30805E8E703200135042D7FF479AF0A
:103E0000042807D101E0042801D101254BE701284E
:103E10007FF678AF0D2546E705F1140004F14C0656
:103E20003044FFF7E5F901280546F3D9E36A8342F8
:103E3000F0D96189821E236C02FB01336364A16B9C
:103E4000204601EBD511FFF7A1FB0028DDD105F0DD
:103E50007F0006EB8000FFF7CBF9431C03D0013550
:103E6000A842ECD0D6E70425C4E90500064A25702F
:103E700000251388E56101339BB21380E38012E7CC
:103E800060370020FDFFFF7F64370020B4F8573013
:103E9000B3F5007FBED1B4F8626026B904F17000BA
:103EA000FFF7A6F9064694F85C302663591EA37006
:103EB0000129AFD894F859506581002DAAD0691E08
:103EC0002942A7D1B4F85D8018F00F0FA4F808803C
:103ED000A0D1B4F85F0018B904F16C00FFF788F9BD
:103EE000B4F85A10002995D006FB03FE01EB181C0C
:103EF000F44460458ED3A0EB0C00A842B0FBF5F370
:103F000088D33E48834285D84FF6F57083426DD9F9
:103F100003259F1C114402EB0C03032DE76262632F
:103F2000A16323644CD1B4F8763053EA08037FF4DC
:103F300071AFBB0004F17800FFF75AF9E06303F2B8
:103F4000FF13B6EB532FFFF465AF4FF0FF33032D94
:103F5000C4E905334FF08003237187D1B4F87C3076
:103F6000012B83D1511C2046FFF710FB00287FF462
:103F70007DAFB4F84A224AF6552320719A427FF465
:103F800075AF1F4B04F14C00FFF732F998427FF4F4
:103F90006DAF03F1FF5304F50C70FFF729F903F53A
:103FA0000053203398427FF461AF04F50D70FFF7A2
:103FB0001FF9A06104F50E70FFF71AF9606155E76B
:103FC000B8F1000F3FF426AF7144022D4FEA4703CA
:103FD000E1631EBFD91907F0010303EB5103AEE7FC
:103FE0000B2560E60C255EE603255CE640F6F575DC
:103FF000AB428CBF022501258BE700BFF5FFFF0F09
:10400000525261412DE9F84F07460568884649B983
:104010006E69C6B1EB6AB34298BF0126AB69A3B91A
:10402000002405E0FFF76AFB0128044603D80124B9
:104030002046BDE8F88F421C00F0D280EB6A834234
:10404000F6D84646EAE70126E8E72A78EB6A042A2A
:1040500040F08380A6F1020A023B4FF0010B9A4523
:1040600028BF4FF0000AD146696C284601EB193190
:10407000FFF78CFA00283BD109F00703EA6AC9F37D
:10408000C8010BFA03F3901EDBB26A184C4609F123
:10409000010992F84C20814502EA030233BF5B001C
:1040A00000234FF40071DBB228BF9946B2B9023445
:1040B000631E0333BCD80123214628461A46FFF766
:1040C000E1FA0228B3D0012800F08A80B8F1000F8D
:1040D00013D10223FB710028A9D130E0CA450AD0D0
:1040E000002BD2D10131B1F5007FBDD20123CCE745
:1040F0004FF0FF34DCE70024DAE7FB79022B07D12D
:10410000731CA342E7D0BB68F31ABB610323FB71A6
:1041100008F10102FB69A24205D113B10133FB6131
:10412000D9E70223FBE70BB90123FB612246414695
:104130003846FFF747FC00284FD10123FB61EA6AAC
:10414000AB69023A6C6193429CBF03F1FF33AB61F0
:104150002B7943F001032B716AE7464514D1741C97
:104160003846A34298BF02242146FFF7C7FA012828
:104170003FF45DAF431C33D0E0B16B69012B03D931
:10418000EA6A934238BF1E4634460134EB6AA342C2
:1041900003D8012E7FF644AF022421463846FFF7AC
:1041A000ADFA48B101283FF442AF013018D0B44213
:1041B000EBD135E7002CE7D04FF0FF3221462846FF
:1041C000FFF77CFB48B9B8F1000FB8D02246414652
:1041D0002846FFF773FB0028B1D001287FF427AFF2
:1041E0004FF0FF3424E700002DE9F8430668044649
:1041F000076B894633782037042B0CBF4FF0805370
:104200004FF40013BB429CBF00238363836B73B1E5
:10421000C7F30808B8F1000F3CD10133416B836349
:1042200039B93389B3EB571F34D80023A363042073
:104230000AE07389013B13EA57232BD1FFF75EFA9B
:104240000128054602D80220BDE8F883421C01D1AE
:104250000120F9E7F36A834216D8B9F1000FE4D0E0
:10426000616B2046FFF7CEFE0546C8B10128EAD0B3
:10427000431CEDD001463046FFF752FC0028E7D141
:10428000E37943F00403E371294630466563FEF7A2
:10429000CDFFA0634C36002027634644E663D3E796
:1042A0000720D1E7F8B50E46002104460768FFF75E
:1042B000BDFA98B90546A16B3846FFF767F968B9AA
:1042C0003A78E36B042A1B780CD11B060ED5054601
:1042D00001212046FFF788FF0028ECD0042808BF02
:1042E000072006E0E52B01D0002BF0D10135B542C7
:1042F000EED1F8BDC16C4B1C2DE9F04104460568B8
:10430000066B1FD1E5274FF00108A16B2846FFF788
:104310003DF998B92A78E36B042A09BF1A781F700F
:1043200002F07F021A7085F80380236BB3420DD22E
:1043300000212046FFF758FF0028E6D0042808BFD8
:10434000022003E0FFF772FA0028DBD0BDE8F0811D
:104350002DE9F04105460068A96B0669FFF716F9DB
:10436000044620B9EB6B1A78852A03D00224204634
:10437000BDE8F081324603F1200153F8040B8B4273
:1043800042F8040BF9D1777801377F01A7F1600378
:10439000B3F5007FEAD800212846FFF725FF04285F
:1043A0000446E3D00028E2D1A96B2868FFF7EEF8B5
:1043B00004460028DBD1EB6B1A78C02AD6D106F16F
:1043C000200203F1200153F8040B8B4242F8040B46
:1043D000F9D196F823300F222C33B3FBF2F3B7EB6D
:1043E000431FC3D34FF0400800212846FFF7FCFECF
:1043F00004280446BAD00028B9D1A96B2868FFF771
:10440000C5F804460028B2D1EB6B1A78C12AADD1A9
:10441000B8F5187F09D206EB080203F1200153F822
:10442000040B8B4242F8040BF9D108F120084745F0
:10443000DAD8B8F5187F9AD83046FEF71FFF738890
:10444000834294D092E700000B68002210B503600D
:1044500004460B6A83604B6AC261C37123F0FF0399
:10446000896AC0E90432C164FFF7E0F920B9204647
:10447000BDE81040FFF76CBF10BD0000F8B5036841
:10448000054601271C692046FEF7F8FEA070000AC9
:104490006678E0702846E96CFFF7C8F920B1022879
:1044A00028BF0220C0B2F8BDA96B2868FFF76EF8DC
:1044B0000028F4D1EB6B04F1200254F8041B944261
:1044C00043F8041BF9D12B68DF70002EE7D00021E0
:1044D0002846013EFFF788FEE0E700002DE9F8439B
:1044E0004FF0FF0806460768042445464FF6FF795B
:1044F000B16B11B9002C73D063E03846FFF746F872
:10450000044600285DD1F06B0378002B6ED03A781A
:10451000042A11D1852B4DD1336B3046F364FFF75C
:1045200017FF044600284CD13B691B7903F03F0379
:10453000B3712046BDE8F883C27AE52B02F03F0252
:10454000B27143D02E2B41D022F0200108293DD05A
:104550000F2A40D1590637D503F0BF05336B90F8C9
:104560000D80F364437B434530D1428B72BB0378AB
:104570000D21FC6823F04003DFF874E0013B4B435E
:1045800001211EF801CB30F80CC009B3FF2B1DD858
:1045900024F813C06146013301320D2AF1D10278AB
:1045A000520605D521B1FF2B10D8002224F8132084
:1045B000013DEDB200213046FFF716FE044600280B
:1045C00096D00023B363B4E7AB42CBD0FF25F1E72D
:1045D000CC45E1D0FAE72DB9FEF740FE404501D1C8
:1045E0000024A6E74FF0FF33F364A2E70424E8E7D2
:1045F000C4AC00082DE9F04F002187B00446D0F884
:104600000090FFF713F9804670B999F80030042B39
:1046100033D1D9F80C00FEF779FF07462046FFF7A3
:104620005DFF054620B18046404607B0BDE8F08FEB
:10463000D9F810309A8CBA42F0D193F823B04026C2
:104640005D4506D1D9F80C3033F81530002BE5D193
:10465000EAE7F106D9F8103008BF0236985B01F09E
:104660004DF8D9F80C30824633F8150001F046F8C1
:104670008245D3D102360135E2E74FF0FF0A4FF011
:10468000FF3B5546C4F84CB0A16B4846FEF77EFF91
:1046900000285CD1E66B3778002F77D0F27AE52FCF
:1046A00002F03F03A37103D0120704D50F2B04D0EF
:1046B000C4F84CB04FE00F2B54D194F84B3058064F
:1046C0003FD4790645D5236B07F0BF0796F80DA0B8
:1046D000E364737B53453ED1738B002B3BD135781C
:1046E0000121D9F80C3005F03F0501930D23013D60
:1046F0005D43284B13F8012BB25A71B3FF2D05937C
:1047000029D81046049200F0F9FF6B1C0390029325
:10471000019B33F8150000F0F1FF039981421AD193
:10472000049A029D1146059B1B4A9342E2D13378BD
:104730005A0604D519B1019B33F815305BB97D1EBB
:10474000EDB200212046FFF74FFD00289CD08046A7
:104750006AE7BD42BDD0FF25F3E74FF6FF70824206
:10476000E2D0F8E72DB93046FEF778FD50453FF42A
:104770005BAF94F84B30DB079AD40B2204F1400175
:10478000304606F001F8002892D14DE74FF00408BA
:104790004AE700BFC4AC0008D1AC00082DE9F04FD7
:1047A00090F84BB099B004461BF0A00540F068812A
:1047B0000668F26832F81530002B4AD13378042BA2
:1047C00040F087800F230E352046B5FBF3F5A91C7A
:1047D000FFF768FD8146002877D1236B0135A3EBF5
:1047E0004515E3795A07E56435D523F004032046DF
:1047F000E371FFF77DF950BB4FF0FF32616B20464C
:10480000FFF7E0F818BBA3682BB3214604A8FFF715
:104810001BFEE0B970894FF40071D4E90423E0FB7A
:1048200001233069C4E904233830FEF7EFFC306916
:10483000D4E904232830FEF7E9FCE379326904A8BF
:1048400043F0010382F82130FFF718FE18B18146CA
:104850003BE00135AEE7D6E9035440220021204673
:10486000FDF722FC8523012140222370C0234FF055
:10487000C10C04EB010884F8203000231E469E463C
:10488000571C04F802C0F0B2023204F807E021B16C
:1048900035F8131009B10133DBB20F0AA15408F83F
:1048A00002700232D706F2D135F813700136002FAC
:1048B000E6D184F82330831C28466370FEF726FE79
:1048C00084F82400000A84F82500484619B0BDE8A1
:1048D000F08F04F140070DF1100A1BF0010F97E86B
:1048E00007008AE8070000F0D38040234FF001085A
:1048F00084F84B30BC46F368B8F1050F9AE807001E
:10490000ACE803002CF8022B4FEA12428CF800208E
:1049100059D9981E424630F8021F002942D10DF1A4
:104920000F0C072102F00F0E914612090EF1300014
:10493000392888BF0EF1370001390CF8010902D07F
:10494000B9F10F0FEED818AB7E205A1802F8580CA8
:1049500038460022914206D010F801CB02F1010E38
:10496000BCF1200F31D104F13F0C072902F1010203
:1049700097BF18AB20205818013198BF10F8580C79
:10498000072A0CF80200F0D92046FFF733FE8146D3
:10499000002878D108F10108B8F1640FAAD14FF0CE
:1049A000070992E74FF0100C01F0010E49080EEBD9
:1049B0004202D30344BF82F4883282F02102BCF168
:1049C000010CF1D1A7E74246A9E77246C2E7216B85
:1049D0002046A1EB4511FEF729FF814600287FF410
:1049E00074AF4FF6FF783846FEF738FC0190A16BA4
:1049F0003046FEF7CBFD814600287FF466AFE36BBF
:104A0000E9B2019A4FF00D0CD6F80CE05A734FF052
:104A10000F02DFF8E0A0DA724A1E18730CFB02F2F4
:104A200084469876D87640451AF8019B0CF1010C23
:104A300018BF3EF8120003EB090B18BF013203F850
:104A400009004FEA1029002808BF4046BCF10D0FAD
:104A50008BF80190E7D1404502D03EF812200AB908
:104A600041F040011970012300212046F370FFF747
:104A7000BBFB814600287FF428AF013DB7D11BE086
:104A80004FF0060921E704287FF41FAF84F84BB0EC
:104A90001BF0020F20461BBF0C350D210125B5FB75
:104AA000F1F518BF01352946FFF7FCFB81460028C8
:104AB0007FF40BAF013D8AD1A16B3046FEF766FD56
:104AC000814600287FF401AF01462022E06BFDF70C
:104AD000EBFAE36B03CF18605960BA7839889A72A1
:104AE000198194F84B30E26B03F018031373012320
:104AF000F370EAE6C4AC000810B504460A46343048
:104B0000FEF776FB886004F13800FEF773FBC2E91C
:104B1000040194F8213003F00203D3710023D36120
:104B200010BD000003284B8B04BF8A8A43EA02436E
:104B3000184670472DE9F04F0B7899B00446894626
:104B40002F2BD0F800B001D05C2B09D14A46137846
:104B5000914601322F2BFAD05C2BF8D0002301E0D4
:104B6000DBF81C30A3600023E3619BF80030042BCA
:104B70001ED1A368E3B1DBF82030214604A82362EC
:104B8000DBF824306362DBF82830A362FFF75CFCBB
:104B90000346002854D1DBF8102002F13800FEF75C
:104BA00027FBC4E9040392F8213003F00203E37108
:104BB00099F800301F2B00F2358180230021204618
:104BC00084F84B3019B0BDE8F04FFEF72FBE4946D0
:104BD0000B78894601312F2BFAD05C2BF8D01F2B94
:104BE0008CBF00250425012F2FD113882E2B31D106
:104BF000002322F8173004F140029F428CBF2E217F
:104C0000202101330B2B02F8011BF6D145F02005C2
:104C1000204684F84B50FFF7EDFC94F84B30002809
:104C200000F0E78004280BD1990603F0040240F15C
:104C3000DC80002A00F0F6808023002084F84B30CE
:104C400019B0BDE8F08F0425CDE7022F02D15388BB
:104C50002E2BCAD0911E87BB002322F81730002FBD
:104C600000F0118132F81300194601332028F9D0E1
:104C700009B92E2801D145F00305901E30F81730F0
:104C80002E2B01D0013FF9D14FF020334FF0000A15
:104C90006364D0462364C4F847300823481C32F8C4
:104CA00011600090F6B1202E03D02E2E0DD1B84207
:104CB00010D045F003050099F0E731F81730202BAC
:104CC00001D02E2BC8D1013FC5E79A4505D20099E6
:104CD000B9423BD10B2B30D101E00B2B27D145F052
:104CE00003050B2394F84020E52A04BF052284F82D
:104CF0004020082B04BF4FEA88085FFA88F808F0C4
:104D00000C030C2B03D008F00303032B01D145F057
:104D10000205A8073FF57CAF18F0010F18BF45F05A
:104D2000100518F0040F18BF45F0080570E700994A
:104D3000B94202D045F00305D4D84FEA88080B23C6
:104D40004FF0080A00975FFA88F8B4E77F2E15D96C
:104D5000304640F25231CDE9022345F0020301937F
:104D600000F098FC10F0800F0646DDE9022316D013
:104D700000F07F0646498E5D019D46B331464548A9
:104D8000CDE9012305F06EFDDDE90123F8B9A6F1B7
:104D9000410189B219291ED848F0020810E0FF2805
:104DA000EAD9591E8A4503D345F003059A4682E79E
:104DB00004EB0A01000A0AF1010A019D81F8400092
:104DC00004EB0A010AF1010A81F8406073E745F03B
:104DD00003055F26F4E7A6F1610189B219299EBF98
:104DE000203E48F00108B6B2EAE7002A08BF0520D5
:104DF00026E75A073FF524AFA379DB0645D59BF894
:104E00000000042835D1A3682146E2792362236992
:104E1000DBF8100023F0FF0313436362E36CA3622B
:104E2000FFF76AFE23680027DA6819F8010B0028EB
:104E30003FF409AF40F25231009200F04BFC0546BE
:104E400008B31F28009A7FF6FEAE2F283FF4BFAEAE
:104E50005C283FF4BCAE7F2805D801460E4805F01B
:104E600001FD009A78B9FF2F0DD022F817500137B5
:104E7000DBE7216B0BF14C03C1F308011944FFF789
:104E800051FEA060CEE70620DAE60520D8E600BF96
:104E900044AC00083DAC000834AC00081FB5CDE9B7
:104EA000001003A814460391FEF700FA002815DB52
:104EB0000B4A52F820300BB100211970019B0BB145
:104EC0000021197042F820302CB1002201A9684657
:104ED000FEF7C8FE0446204604B010BD0B24FAE7D6
:104EE000603700202DE9F04798B0904605460191C3
:104EF000002800F0528102F03F0603A901A83246C3
:104F0000FEF7B0FE002840F04681039B4FF48C6012
:104F1000049303F047FC0746002800F04081039B00
:104F200000F500720199D86004A81A61FFF702FE2B
:104F3000044620B99DF95B30002BB8BF062418F059
:104F40001C0F00F0CD80002C4CD0042C40D104A8C4
:104F5000FFF724FC044600283AD146F00806039BDC
:104F60001A78042A40F08380186929462B60FFF7DD
:104F7000C3FD039B1E22002118690230FDF794F83F
:104F8000039C00211A2220692630FDF78DF8236941
:104F900020221A71246903F073FC014601220834AF
:104FA0002046FEF72BF9039B04A81B6983F82120F8
:104FB000FFF764FA044658B9A96801B302462846C7
:104FC000FEF718FDAB68039A0446013B5361B4B188
:104FD000384603F0F7FB0CB100232B60204618B0D5
:104FE000BDE8F0879DF8163013F0110F40F0848073
:104FF00018F0040F40F0C98018F0080FAFD1039AE1
:1050000031071399936C48BF46F04006E964AB64DE
:105010001078042872D1069B9DF817102B62089B0C
:10502000106923F0FF030B4329466B62179BAB62A9
:10503000FFF762FDDDF80CA00024002205F1500806
:10504000BAF8063021464046C5F800A0AB800023E0
:1050500085F8306085F831406C64C5E90E234FF463
:105060000072FDF721F8B20653D40024B0E703F034
:1050700007FC0146009013980E30FEF7BFF8139816
:1050800000991630FEF7BAF8039C13992078FFF7C1
:1050900049FD202300228046CB7220461399FEF75B
:1050A000D1F8139B002201211A775A779A77DA7781
:1050B000039BD970B8F1000FA1D0414604A8D3F8E2
:1050C0004890FEF797FC0446002881D14946039892
:1050D000FEF75CFA039B044608F1FF30586176E75F
:1050E000002C7FF475AF9DF81630DC064FD418F015
:1050F000020F84D0D80782D5072469E7FFF712FD95
:105100000023A86001F11C00FEF772F86B612861B2
:1051100090E7D5E9046956EA0903A6D0BAF80AA0CF
:10512000A9684FEA4A2AC5E90E69B24574EB09033A
:105130001BD300242964002C7FF44AAFC6F3080374
:10514000002B92D0039C2046FEF770F808B3760A35
:105150000123414646EAC95682196A64607802F022
:105160009FFE041E18BF012432E72846FEF7C6FA48
:10517000B6EB0A06014669F10009012803D9431C70
:10518000D3D10124D6E70224D4E7082420E704245D
:105190001EE702241CE704461EE709241EE711242B
:1051A0001CE700002DE9F04F994685B000238846A2
:1051B00003A90446C9F800301646FEF791F80546E3
:1051C00080BB94F831506DBB94F8303013F001037C
:1051D000009300F0A68004F1500AD4E90432D4E927
:1051E0000E011B1A62EB0102B34272F1000238BFDA
:1051F0001E46BEB1D4E90E10C1F30803002B40F0E7
:105200008280039B5A894B0A013A43EAC0531A40F1
:105210001BD151EA000309D1A06801280DD802254D
:1052200084F83150284605B0BDE8F08F216C204647
:105230000192FEF763FA019AEFE7431C04D10123C0
:10524000009D84F83130EDE72064DDF80CB0216C6E
:105250005846FDF7EBFF0028E1D0B6F5007F02EBE2
:10526000000731D3BBF80A1002EB5620730A8842BC
:105270009BF8010088BF8B1A3A464146019302F021
:105280000FFE0028DBD194F93020019B002A0BDAB5
:10529000606CC01B984207D24FF40072514608EB75
:1052A0004020FCF7CFFE019B5F02D9F80030F61BCF
:1052B000B8443B44C9F80030D4E90E32DB1942F15E
:1052C0000002C4E90E3294E7626CBA421AD094F933
:1052D0003030002B0DDA012351469BF8010002F01B
:1052E00003FE0028ABD194F8303003F07F0384F83C
:1052F0003030039801233A465146407802F0D0FD01
:1053000000289CD16764A16B4046C1F30801C1F538
:1053100000775144B74228BF37463A46FCF792FE21
:10532000C3E707257EE7000070B596B00E46002261
:10533000019002A901A8FEF795FC0446E0B94FF4DC
:105340008C6003F02FFA0546D8B1029B00F500727D
:105350000199D86002A81A61FFF7ECFB044640B936
:105360009DF95330002B0ADB1EB1314602A8FDF730
:10537000EDFF284603F026FA204616B070BD06243D
:10538000F7E71124F8E7000070B5B8B002220190E9
:1053900003A901A8FEF766FC044608BB039B4FF473
:1053A0008C60109303F0FEF90546002866D0039B3D
:1053B00000F500720199D86010A81A61FFF7BAFBD6
:1053C000044650B99DF88B30980655D4190653D42D
:1053D0009DF84630DA0706D50724284603F0F2F98F
:1053E000204638B070BD039B04931878042814D16C
:1053F00004A91869FFF780FB069E9DF84630DB067E
:1054000010D410A8FEF776FF04460028E5D156BB5D
:105410000398FEF7DBFB0446DFE71F99FFF782FBEB
:105420000646EAE7039BDA69B242D5D0249300210D
:10543000269624A81B78042B01BFDDE90823CDE9BB
:1054400028239DF817308DF89730FEF7EFF90446C2
:105450000028C2D124A8FFF741F804460028BBD099
:105460000428BAD1CDE70246314604A8FEF7C2FAB5
:1054700004460028B1D1CBE70624AEE71124AFE7FC
:10548000F0B5BDB0CDE900106846FDF70FFF022270
:1054900003A901A8FEF7E6FB0446002841D1039BBF
:1054A0004FF48C60149303F07DF90546002800F05A
:1054B000EE80039B00F5007214AE0199D8601A616A
:1054C0003046FFF737FB044640BB9DF89B3013F096
:1054D000A00F40F0D880039B009F1A78042A68D15F
:1054E0001B6904AC03F1400C1868083353F8041C22
:1054F0002246634503C21446F6D15022314628A8FD
:10550000FCF7A0FD394628A8FFF714FB0446002845
:105510004CD12A9A169B9A4206D00824284603F0BA
:1055200051F920463DB0F0BD349A209B9A42F4D107
:1055300028A8FFF733F904460028EFD1039B04AFF6
:105540001B6993F801E093F823C09C8C3A4608331A
:1055500003CAB24243F8080C43F8041C1746F5D1BD
:10556000039B28A81B6983F801E0039B1A6982F852
:1055700023C01A6982F82440240A82F825401A6957
:105580001379D9065CBF43F020031371FEF776FF51
:1055900004460028C2D13046FEF7ACFE044600287F
:1055A000BCD10398FEF712FB0446B7E70428B5D137
:1055B000BEE7239A04AB02F1200C1068083252F8BF
:1055C000041C1C46624503C42346F6D150223146D2
:1055D00028A8FCF737FD394628A8FFF7ABFA0446A0
:1055E00000284CD12A9A169B9A4296D1349A209B35
:1055F0009A4292D128A8FFF7D1F8044600288DD10D
:1056000037990DF11D030DF12D0001F10D0253F835
:10561000044B834242F8044BF9D1188801271080CB
:105620009B7893709DF81B30039CDA0658BF43F0BB
:105630002003CB72E770CB7ADB06ACD5169A2A9B97
:105640009A42A8D02078FFF76DFA01462046FDF770
:10565000EDFD0146C8B12046FDF798FF044600283D
:105660007FF45CAF039890F86D302E2B93D12A9A7B
:1056700000F16C01FDF7E6FD039BDF708BE704286A
:105680007FF44CAFB6E7062448E7022446E711242E
:1056900047E700007F2810B501D880B210BDB0F5F3
:1056A000803F13D240F2523399420FD10849002271
:1056B00031F8024B93B2844203D103F18000C0B2AF
:1056C000ECE70132802AF3D11346F6E70020E5E744
:1056D00084AF00087F280DD940F25233994208D197
:1056E000FF2806D800F10040034B803833F8100043
:1056F00070470020704700BF84AF0008B0F5803FBE
:10570000F0B522D21F4A83B21F49B0F5805F28BF8F
:105710000A46141D34F8042C2146AAB1934213D32F
:1057200034F8025C2E0AEFB252FA85F5A84222DA6A
:10573000082E09D8DFE806F0050A10121416181A08
:105740001C00801A34F810301846F0BD981A00F08A
:1057500001001B1A9BB2F7E7103BFBE7203BF9E780
:10576000303BF7E71A3BF5E70833F3E7503BF1E747
:10577000A3F5E353EEE70434002ECBD101EB47024F
:10578000C7E700BFD4AC0008C8AE0008F0B500F110
:105790000B0423460D46B1FBF2F102FB115707F152
:1057A0003006392EC8BF07F13706954203F8016D60
:1057B000F0D2421EE11A13F8015B9C4202F8015F2D
:1057C000F9D10844F0BD00002DE9F04F804687B0C4
:1057D00015464FF000090C4614F8013B002B3BD056
:1057E000252B08D0D8F800201946404609F10109B8
:1057F000D268904749E14B782D2B06BF8C1C0123C2
:105800000023019323782B2B06BF013401270027A7
:1058100094F800A0BAF1300F0CBF01344FF0200A09
:1058200023782A2B1CD16178023455F804BB2E2929
:1058300043D1217881B12A2921D0661C0020A1F111
:1058400030023446D2B2092A1DD80A2316F8011BA9
:1058500003FB00200029F2D1484607B0BDE8F08FD5
:105860004FF0000B14F8011B0029F5D0A1F1300214
:10587000D2B2092ADBD80A2303FB0B2BF2E76178AB
:10588000023455F8040B01F0DF024C2A17D12178BD
:105890000029E1D0782904F101041FD8622900F21F
:1058A000008158291AD84E2900F23081442900F08D
:1058B0009180492900F08E8010E00020E3E7A1F1FB
:1058C00041027829D2B209D862290BD8582905D8C3
:1058D0004E293BD8442978D0492976D02E468DF8D8
:1058E0000C1056E0A1F16306152EF7D80FF2040C48
:1058F0005CF826F085590008CB590008DD580008EF
:10590000DD580008DD580008DD580008CB590008B4
:10591000DD580008DD580008DD580008DD58000893
:10592000DD5800085B5A0008495B0008DD58000894
:10593000DD5800089B590008DD580008455B000849
:10594000DD580008DD580008495B0008A1F14F024E
:10595000092AC3D801A050F822F000BF5B5A000802
:10596000495B0008DD580008DD580008DD580008D4
:10597000DD580008455B0008DD580008DD580008C8
:10598000495B00082E464FF0200A56F8042B8DF88C
:105990000C2003AD0DF10D002BE02E4647F6FF72F3
:1059A0006A4B56F8045B002808BF1046002D08BF5C
:1059B0001D462A462F18104612F8011B11B1B91ABC
:1059C0000029F8DA4FF0200A13E02E46192A56F87B
:1059D000041B02D82E4656F8041B002936DA2D2265
:1059E00049428DF80C200DF10D000A2203ADFFF79E
:1059F000CDFE471B0199ABEB070323EAE3720029B5
:105A000045D1002BC2F1000B1EDD29782D2901D0D4
:105A10002B290DD1BAF1300F0AD1D8F80030404609
:105A2000019209F10109DB68013F98470135019AAC
:105A3000D8F80030514640460192DB6898471BF188
:105A4000010B019AF4D191443B4615E01FB12B2282
:105A50008DF80C20C7E703A8C7E708222E4603A845
:105A600056F8041BC2E7D8F80020404615F8011B81
:105A7000D26801939047019B013BF4D5002FA8BF4A
:105A8000B9445D462DB9D94435462146A3E693462F
:105A9000DAE7D8F8003051464046013DDB689847C8
:105AA000F0E7A1F16302152A3FF618AF01A353F8FE
:105AB00022F000BF85590008D5590008DD580008BC
:105AC000DD580008DD580008DD580008D5590008E9
:105AD000DD580008DD580008DD580008DD580008D2
