:020000040800F2
:1000000000060020E1020008E3020008E302000805
:10001000E3020008E3020008E3020008E30200082C
:10002000E3020008E3020008E30200084928000890
:10003000E3020008E3020008E3020008E30200080C
:10004000E3020008E3020008E3020008E3020008FC
:10005000E3020008E3020008693D0008953D00083E
:10006000C13D0008ED3D0008193E00087D10000864
:10007000A5100008D1100008FD1000082911000883
:10008000511100087D110008E3020008E302000896
:10009000E3020008E3020008E3020008453E00080E
:1000A000E3020008E3020008E3020008E30200089C
:1000B0001D3F0008E3020008E3020008E302000815
:1000C000E3020008E3020008E3020008E30200087C
:1000D000E3020008E3020008E3020008E30200086C
:1000E000A93E0008E3020008E3020008E30200085A
:1000F000E3020008E3020008E3020008A911000877
:10010000E3020008E3020008E3020008E30200083B
:10011000E3020008E3020008E3020008E30200082B
:10012000D5110008FD110008291200085512000819
:1001300081120008E3020008E3020008E30200085D
:10014000E3020008E3020008E3020008E3020008FB
:10015000A9120008D512000801130008E3020008E4
:10016000E3020008E3020008E3020008E3020008DB
:10017000E302000821340008E3020008E30200085B
:10018000E3020008E3020008E3020008E3020008BB
:10019000E3020008E3020008E3020008E3020008AB
:1001A000E3020008E3020008E3020008E30200089B
:1001B000E3020008E3020008E3020008E30200088B
:1001C000E3020008E3020008E3020008E30200087B
:1001D000E30200080D340008E3020008E30200080F
:1001E000E3020008E3020008E3020008E30200085B
:1001F000E3020008E3020008E3020008E30200084B
:10020000E3020008E3020008E3020008E30200083A
:10021000E3020008E3020008E3020008E30200082A
:10022000E3020008E3020008E3020008E30200081A
:10023000E3020008E3020008E3020008E30200080A
:10024000E3020008E3020008E3020008E3020008FA
:10025000E3020008E3020008E3020008E3020008EA
:10026000E3020008E3020008E3020008E3020008DA
:10027000E3020008E3020008E3020008E3020008CA
:10028000E3020008E3020008E3020008E3020008BA
:10029000E3020008E3020008E3020008E3020008AA
:1002A000E3020008E3020008E3020008E30200089A
:1002B000E3020008E3020008E3020008E30200088A
:1002C000E3020008E3020008E3020008E30200087A
:1002D000E3020008E3020008E3020008E30200086A
:1002E00002E000F000F8FEE772B6374880F30888B5
:1002F000364880F3098836483649086040F20000E5
:10030000CCF200004EF63471CEF200010860BFF36B
:100310004F8FBFF36F8F40F20000C0F2F0004EF637
:100320008851CEF200010860BFF34F8FBFF36F8F8B
:100330004FF00000E1EE100A4EF63C71CEF20001E3
:100340000860062080F31488BFF36F8F02F0DEFA96
:1003500003F0DCFA4FF055301F491B4A91423CBF75
:1003600041F8040BFAE71D49184A91423CBF41F895
:10037000040BFAE71A491B4A1B4B9A423EBF51F83D
:10038000040B42F8040BF8E700201849184A914280
:100390003CBF41F8040BFAE702F0F6FA03F038FB31
:1003A000144C154DAC4203DA54F8041B8847F9E7A6
:1003B00000F042F8114C124DAC4203DA54F8041B21
:1003C0008847F9E702F0DEBA00060020002200208C
:1003D0000000000808ED00E00000002000060020FA
:1003E000F8430008002200205C2200206022002048
:1003F000BC430020E0020008E0020008E002000820
:10040000E00200082DE9F04F2DED108AC1F80CD064
:10041000D0F80CD0BDEC108ABDE8F08F002383F338
:1004200011882846A047002001F096FDFEE701F064
:1004300025FD00DFFEE7000038B500F023FC00F0EA
:10044000B1FD02F0C1F9054602F0F4F90446C0B965
:100450000E4B9D4217D001339D4241F2883512BFA9
:10046000044600250124002002F0B8F90CB100F088
:1004700075F800F06BFD284600F012F900F06EF8F8
:10048000F9E70025EFE70546EDE700BF010007B0FB
:1004900008B500F0C9FBA0F120035842584108BD3F
:1004A00007B541F21203022101A8ADF8043000F0B3
:1004B000D9FB03B05DF804FB38B5302383F3118812
:1004C000174803680BB101F013FE0023154A4FF4DF
:1004D0007A71134801F002FE002383F31188124C55
:1004E000236813B12368013B2360636813B1636819
:1004F000013B63600D4D2B7833B963687BB90220F3
:1005000000F086FC322363602B78032B07D16368ED
:100510002BB9022000F07CFC4FF47A73636038BD85
:1005200060220020B90400088023002078220020E7
:10053000084B187003280CD8DFE800F00805020803
:10054000022000F055BC022000F044BC024B002207
:100550005A6070477822002080230020F8B5494B6C
:10056000494A1C461968013100F08A8004339342DD
:10057000F8D16268454B9A4240F28280444B9B68B6
:1005800003F1006303F500339A4279D2002000F0B2
:1005900093FB0220FFF7CCFF3E4B00219A6C99643D
:1005A0001A6F19671A6FDA6CD9645A6F59675A6FE4
:1005B0001A6D19659A6F99679B6F374BD3F8802036
:1005C00042F00062C3F88020D3F8802022F000625D
:1005D000C3F88020D3F88020D3F8802042F0007246
:1005E000C3F88020D3F8802022F00072C3F8802066
:1005F000D3F8803072B64FF0E023C3F8084DD4E949
:100600000004BFF34F8FBFF36F8F244AC2F88410EA
:10061000BFF34F8F536923F480335361BFF34F8F80
:10062000D2F8803043F6E076C3F3C905C3F34E3306
:100630005B0103EA060C29464CEA81770139C2F8CE
:100640007472F9D2203B13F1200FF2D1BFF34F8F18
:10065000BFF36F8FBFF34F8FBFF36F8F536923F4D7
:10066000003353610023C2F85032BFF34F8FBFF302
:100670006F8F302383F31188854680F308882047E5
:10068000F8BD00BF0000020820000208FFFF0108BB
:1006900000220020004502580044025800ED00E00E
:1006A0002DE9F04F93B0B44B2022FF2100900AA80F
:1006B0009D6800F0F5FBB14A1378A3B90121B04859
:1006C00011700360302383F3118803680BB101F0CC
:1006D0000FFD0023AB4A4FF47A71A94801F0FEFCEC
:1006E000002383F31188009B13B1A74B009A1A6073
:1006F000A64A1378032B03D000231370A24A536039
:100700004FF0000A009CD3465646D146012000F027
:100710006FFB24B19C4B1B68002B00F0268200204D
:1007200000F082FA0390039B002BF2DB012000F023
:1007300051FB039B213B1F2BE8D801A252F823F069
:10074000C1070008E90700087D0800080D07000838
:100750000D0700080D0700080F090008DF0A000850
:10076000F90900085B0A0008830A0008A90A0008C2
:100770000D070008BB0A00080D0700082D0B000834
:10078000610800080D070008710B0008CD0700087C
:10079000610800080D0700085B0A00080D07000843
:1007A0000D0700080D0700080D0700080D070008D9
:1007B0000D0700080D0700080D0700087D08000858
:1007C0000220FFF765FE002840F0F981009B02211E
:1007D00005A8BAF1000F08BF1C4641F21233ADF86C
:1007E000143000F03FFA91E74FF47A7000F01CFAF1
:1007F000071EEBDB0220FFF74BFE0028E6D0013F8F
:10080000052F00F2DE81DFE807F0030A0D10133632
:100810000523042105A8059300F024FA17E004211C
:100820005548F9E704215A48F6E704215948F3E707
:100830004FF01C08404608F1040800F03FFA04217C
:10084000059005A800F00EFAB8F12C0FF2D10120A6
:100850004FF0000900FA07F747EA0B0B5FFA8BFB32
:1008600000F06AFB26B10BF00B030B2B08BF002432
:10087000FFF716FE4AE704214748CDE7002EA5D032
:100880000BF00B030B2BA1D10220FFF701FE074653
:1008900000289BD00120002600F00EFA0220FFF76E
:1008A00047FE1FFA86F8404600F016FA0446B0B13B
:1008B000039940460136A1F140025142514100F0F6
:1008C0001BFA0028EDD1BA46044641F21213022168
:1008D00005A83E46ADF8143000F0C4F916E72546E9
:1008E0000120FFF725FE244B9B68AB4207D9284621
:1008F00000F0E4F9013040F067810435F3E70025AA
:10090000224BBA463E461D701F4B5D60A8E7002E85
:100910003FF45CAF0BF00B030B2B7FF457AF0220BF
:10092000FFF706FE322000F07FF9B0F10008FFF675
:100930004DAF18F003077FF449AF0F4A08EB0503EA
:10094000926893423FF642AFB8F5807F3FF73EAFE3
:10095000124BB845019323DD4FF47A7000F064F92F
:100960000390039A002AFFF631AF039A0137019BE7
:1009700003F8012BEDE700BF002200207C230020BC
:1009800060220020B9040008802300207822002083
:1009900004220020082200200C2200207C220020BB
:1009A000C820FFF775FD074600283FF40FAF1F2D45
:1009B00011D8C5F120020AAB25F003008449424555
:1009C000184428BF4246019200F044FA019AFF21E0
:1009D0007F4800F065FA4FEAA803C8F387027C4914
:1009E0002846019300F064FA064600283FF46DAFF4
:1009F000019B05EB830533E70220FFF749FD002843
:100A00003FF4E4AE00F096F900283FF4DFAE002793
:100A1000B846704B9B68BB4218D91F2F11D80A9B50
:100A200001330ED027F0030312AA134453F8203CDD
:100A300005934046042205A9043700F009FB8046CF
:100A4000E7E7384600F03AF90590F2E7CDF8148070
:100A5000042105A800F006F902E70023642104A898
:100A6000049300F0F5F800287FF4B0AE0220FFF701
:100A70000FFD00283FF4AAAE049800F051F905904C
:100A8000E6E70023642104A8049300F0E1F80028BD
:100A90007FF49CAE0220FFF7FBFC00283FF496AEEB
:100AA000049800F03FF9EAE70220FFF7F1FC002884
:100AB0003FF48CAE00F04EF9E1E70220FFF7E8FCCE
:100AC00000283FF483AE05A9142000F049F9074639
:100AD0000421049004A800F0C5F83946B9E7322093
:100AE00000F0A2F8071EFFF671AEBB077FF46EAEF2
:100AF000384A07EB0903926893423FF667AE02203B
:100B0000FFF7C6FC00283FF461AE27F003074F440F
:100B1000B9453FF4A5AE484609F1040900F0CEF806
:100B20000421059005A800F09DF8F1E74FF47A70D4
:100B3000FFF7AEFC00283FF449AE00F0FBF80028B8
:100B400044D00A9B01330BD008220AA9002000F0F0
:100B5000AFF900283AD02022FF210AA800F0A0F91E
:100B6000FFF79EFC1C4801F0FDF913B0BDE8F08FC3
:100B7000002E3FF42BAE0BF00B030B2B7FF426AEB5
:100B80000023642105A8059300F062F807460028B9
:100B90007FF41CAE0220FFF77BFC804600283FF468
:100BA00015AEFFF77DFC41F2883001F0DBF90598C6
:100BB00000F0F6F946463C4600F0BEF9A6E50646CA
:100BC0004EE64FF0000901E6BA467EE637467CE67F
:100BD0007C22002000220020A08601000F4B70B56F
:100BE0001B780C460133DBB2012B11D80C4D4FF4AE
:100BF0007A732968A2FB033222460E6A0146284610
:100C0000B047844204D1074B002201201A7070BD06
:100C10004FF4FA7001F0A6F90020F8E71022002046
:100C2000B0260020B4230020002307B5024601218E
:100C30000DF107008DF80730FFF7D0FF20B19DF8C8
:100C4000070003B05DF804FB4FF0FF30F9E7000048
:100C50000A46042108B5FFF7C1FF80F00100C0B2C9
:100C6000404208BD30B4054C0A4601462368204680
:100C7000DD69034BAC4630BC604700BFB0260020A6
:100C8000A086010070B50A4E00240A4D01F084FCD4
:100C9000308028683388834208D901F079FC2B68BA
:100CA00004440133B4F5003F2B60F2D370BD00BFA4
:100CB000B62300208823002001F03CBD00F1006035
:100CC00000F500300068704700F10060920000F508
:100CD000003001F0BDBC0000054B1A68054B1B88B5
:100CE0009B1A834202D9104401F052BC0020704785
:100CF00088230020B623002038B50446074D29B1CB
:100D000028682044BDE8384001F05ABC28682044D7
:100D100001F044FC0028F3D038BD00BF8823002038
:100D20000020704700F1FF5000F58F10D0F8000848
:100D300070470000064991F8243033B1002308229F
:100D4000086A81F82430FFF7BFBF0120704700BF59
:100D50008C230020014B1868704700BF0010005C16
:100D6000194B01380322084470B51D68174BC5F3B1
:100D70000B042D0C1E88A6420BD15C680A46013C70
:100D8000824213460FD214F9016F4EB102F8016B83
:100D9000F6E7013A03F10803ECD181420B4602D297
:100DA0002C2203F8012B0424094A1688AE4204D1F0
:100DB000984284BF967803F8016B013C02F104026B
:100DC000F3D1581A70BD00BF0010005C142200203F
:100DD00014400008022803D1044B80229A61704716
:100DE0000128FCD1014B4022F8E700BF0020025847
:100DF000022804D1054B4FF400029A617047012884
:100E0000FCD1024B4FF48002F7E700BF00200258EC
:100E1000022805D1064A536983F080035361704765
:100E20000128FCD1024A536983F04003F6E700BF72
:100E30000020025870B504464FF47A764CB1412C2C
:100E4000254628BF412506FB05F0641B01F08AF802
:100E5000F4E770BD002310B5934203D0CC5CC454BA
:100E60000133F9E710BD0000013810B510F9013F5A
:100E70003BB191F900409C4203D11AB10131013AD2
:100E8000F4E71AB191F90020981A10BD1046FCE75A
:100E900003460246D01A12F9011B0029FAD1704705
:100EA00002440346934202D003F8011BFAE770475D
:100EB0002DE9F8431F4D14460746884695F824202F
:100EC00052BBDFF870909CB395F824302BB92022E8
:100ED000FF2148462F62FFF7E3FF95F824004146C3
:100EE000C0F1080205EB8000A24228BF2246D6B21C
:100EF0009200FFF7AFFF95F82430A41B17441E445F
:100F00009044E4B2F6B2082E85F82460DBD1FFF7F6
:100F100011FF0028D7D108E02B6A03EB820383423C
:100F2000CFD0FFF707FF0028CBD10020BDE8F88322
:100F30000120FBE78C230020024B1A78024B1A7029
:100F4000704700BFB42300201022002010B5114CC0
:100F5000114800F05BFB21460F4800F083FB24683A
:100F60004FF47A70D4F89020D2F8043843F002039A
:100F7000C2F80438FFF75EFF0849204600F080FC05
:100F8000D4F89020D2F8043823F00203C2F80438D1
:100F900010BD00BFD0410008B0260020D841000895
:100FA00070470000F0B5A1B071B600230120002405
:100FB00080261A46194600F041FA4FF4D067214ABC
:100FC0003D25136923BBD2F810310BBB036804F134
:100FD000006199600368C3F80CD003685E60036821
:100FE0001F6001680B6843F001030B6001680B6828
:100FF00023F01E030B6001680B68DB07FCD4037B46
:101000008034416805FA03F3B4F5001F0B60D8D1B2
:1010100000F04AFAB4F5001F11D000240A4E0B4D1F
:10102000012001F087FB3388A34205D928682044BA
:10103000013401F0C5FAF6E7002001F07BFB61B650
:1010400021B0F0BD00200052B623002088230020EC
:1010500030B50A44084D91420DD011F8013B58407B
:10106000082340F30004013B2C4013F0FF0384EA03
:101070005000F6D1EFE730BD2083B8ED08B5074B3F
:10108000074A196801F03D01996053680BB19068F7
:101090009847BDE8084001F00FBC00BF00000240C7
:1010A000B823002008B5084B1968890901F03D01F3
:1010B0008A019A60054AD3680BB110699847BDE868
:1010C000084001F0F9BB00BF00000240B823002037
:1010D00008B5084B1968090C01F03D010A049A6033
:1010E000054A53690BB190699847BDE8084001F083
:1010F000E3BB00BF00000240B823002008B5084B46
:101100001968890D01F03D018A059A60054AD36985
:101110000BB1106A9847BDE8084001F0CDBB00BF95
:1011200000000240B823002008B5074B074A596861
:1011300001F03D01D960536A0BB1906A9847BDE850
:10114000084001F0B9BB00BF00000240B8230020F6
:1011500008B5084B5968890901F03D018A01DA6038
:10116000054AD36A0BB1106B9847BDE8084001F0FF
:10117000A3BB00BF00000240B823002008B5084B05
:101180005968090C01F03D010A04DA60054A536B05
:101190000BB1906B9847BDE8084001F08DBB00BFD4
:1011A00000000240B823002008B5084B5968890D9B
:1011B00001F03D018A05DA60054AD36B0BB1106C72
:1011C0009847BDE8084001F077BB00BF000002402F
:1011D000B823002008B5074B074A196801F03D0104
:1011E0009960536C0BB1906C9847BDE8084001F0D2
:1011F00063BB00BF00040240B823002008B5084BC1
:101200001968890901F03D018A019A60054AD36C89
:101210000BB1106D9847BDE8084001F04DBB00BF11
:1012200000040240B823002008B5084B1968090CD7
:1012300001F03D010A049A60054A536D0BB1906DAF
:101240009847BDE8084001F037BB00BF00040240EA
:10125000B823002008B5084B1968890D01F03D013D
:101260008A059A60054AD36D0BB1106E9847BDE8A8
:10127000084001F021BB00BF00040240B823002059
:1012800008B5074B074A596801F03D01D960536E14
:101290000BB1906E9847BDE8084001F00DBB00BF50
:1012A00000040240B823002008B5084B596889099A
:1012B00001F03D018A01DA60054AD36E0BB1106F6F
:1012C0009847BDE8084001F0F7BA00BF00040240AB
:1012D000B823002008B5084B5968090C01F03D01FE
:1012E0000A04DA60054A536F0BB1906F9847BDE866
:1012F000084001F0E1BA00BF00040240B82300201A
:1013000008B5084B5968890D01F03D018A05DA607E
:10131000054AD36F13B1D2F880009847BDE8084062
:1013200001F0CABA00040240B823002000230C498F
:1013300010B51A460B4C0B6054F82300026001EB09
:10134000430004334260402BF6D1074A4FF0FF338D
:101350009360D360C2F80834C2F80C3410BD00BFEB
:10136000B823002024400008000002400F28F8B5F0
:1013700010D9102810D0112811D0122808D10F240C
:101380000720DFF8B4E00126DEF80050A04208D9BB
:10139000002649E00446F4E70F240020F1E7072483
:1013A000FBE706FA00F73D4240D1214C4FEA001C12
:1013B0003D4304EB00160EEBC000CEF80050C0E930
:1013C0000123FBB24BB11B48836B43F001038363E2
:1013D000036E43F001030366036E17F47F4F09D0D9
:1013E0001448836B43F002038363036E43F00203EC
:1013F0000366036E54F80C00036823F01F030360B8
:10140000056815F00105FBD104EB0C033D2493F8AE
:101410000CC05F6804FA0CF43C6021240560446150
:1014200012B1987B00F04AF83046F8BD0130ADE7C4
:101430002440000800450258B823002010B530248D
:1014400084F31188FFF792FF002383F3118810BD06
:1014500010B50446807B00F047F801231049627BF9
:1014600003FA02F20B6823EA0203DAB20B604AB90C
:101470000C4A916B21F001019163116E21F0010181
:101480001166126E13F47F4F09D1064B9A6B22F04E
:1014900002029A631A6E22F002021A661B6E10BDD7
:1014A000B82300200045025808B5302383F3118883
:1014B000FFF7CEFF002383F3118808BD090100F177
:1014C0006043012203F56143C9B283F8001300F0C1
:1014D0001F039A4043099B0003F1604303F56143F6
:1014E000C3F880211A60704700F01F0301229A4060
:1014F000430900F160409B0000F5614003F1604347
:1015000003F56143C3F88020C3F88021002380F8ED
:1015100000337047026843681143016003B1184704
:101520007047000013B5406B00F58054D4F8A43820
:101530001A681178042914D1017C022911D1197972
:10154000012312898B4013420BD101A94C3002F0C8
:1015500099F8D4F8A4480246019B2179206800F04C
:10156000DFF902B010BD0000143002F01BB800001B
:101570004FF0FF33143002F015B800004C3002F089
:10158000EDB800004FF0FF334C3002F0E7B8000038
:10159000143001F0E9BF00004FF0FF31143001F0CA
:1015A000E3BF00004C3002F0B9B800004FF0FF324A
:1015B0004C3002F0B3B800000020704710B500F5C1
:1015C0008054D4F8A4381A681178042917D1017C02
:1015D000022914D15979012352898B4013420ED12B
:1015E000143001F07BFF024648B1D4F8A4484FF410
:1015F000407361792068BDE8104000F07FB910BDEC
:10160000406BFFF7DBBF0000704700007FB5124B57
:1016100001250426044603600023057400F18402BA
:1016200043602946C0E902330C4B02901430019309
:101630004FF44073009601F02DFF094B04F69442DD
:10164000294604F14C000294CDE900634FF4407345
:1016500001F0F4FF04B070BD244100080116000839
:10166000251500080A68302383F311880B790B33A2
:1016700042F823004B79133342F823008B7913B1DE
:101680000B3342F8230000F58053C3F8A41802235B
:101690000374002080F311887047000038B5037F81
:1016A000044613B190F85430ABB90125201D022136
:1016B000FFF730FF04F114006FF00101257700F00F
:1016C00079FC04F14C0084F854506FF00101BDE83E
:1016D000384000F06FBC38BD10B50121044604301D
:1016E000FFF718FF0023237784F8543010BD000063
:1016F00038B504460025143001F0E4FE04F14C0036
:10170000257701F0B3FF201D84F854500121FFF725
:1017100001FF2046BDE83840FFF750BF90F8803009
:1017200003F06003202B06D190F881200023212AAA
:1017300003D81F2A06D800207047222AFBD1C0E90F
:101740001D3303E0034A426707228267C367012013
:10175000704700BF2C22002037B500F58055D5F822
:10176000A4381A68117804291AD1017C022917D1EA
:101770001979012312898B40134211D100F14C04D5
:10178000204602F033F858B101A9204601F07AFF53
:10179000D5F8A4480246019B2179206800F0C0F8E2
:1017A00003B030BD01F10B03F0B550F8236085B0F4
:1017B00004460D46FEB1302383F3118804EB850700
:1017C000301D0821FFF7A6FEFB6806F14C005B699F
:1017D0001B681BB1019001F063FF019803A901F0A0
:1017E00051FF024648B1039B2946204600F098F875
:1017F000002383F3118805B0F0BDFB685A691268B5
:10180000002AF5D01B8A013B1340F1D104F180027C
:10181000EAE70000133138B550F82140ECB130232D
:1018200083F3118804F58053D3F8A4281368527900
:1018300003EB8203DB689B695D6845B10421601896
:10184000FFF768FE294604F1140001F051FE20461E
:10185000FFF7B4FE002383F3118838BD7047000002
:1018600001F024B901234022002110B5044600F8FC
:10187000303BFFF715FB0023C4E9013310BD000026
:1018800010B53023044683F31188242241600021DF
:101890000C30FFF705FB204601F02AF90223002057
:1018A000237080F3118810BD70B500EB81030546ED
:1018B00050690E461446DA6018B110220021FFF775
:1018C000EFFAA06918B110220021FFF7E9FA3146BA
:1018D0002846BDE8704001F00BBA00008368202262
:1018E000002103F0011310B5044683601030FFF7A8
:1018F000D7FA2046BDE8104001F086BAF0B40125C1
:1019000000EB810447898D40E4683D43A46945812B
:1019100023600023A2606360F0BC01F0A3BA000062
:10192000F0B4012500EB810407898D40E4683D4354
:101930006469058123600023A2606360F0BC01F04C
:1019400019BB000070B50223002504462422037051
:101950002946C0F888500C3040F8045CFFF7A0FA24
:10196000204684F8705001F057F963681B6823B172
:1019700029462046BDE87040184770BD0378052B06
:1019800010B504460AD080F88C30052303704368F4
:101990001B680BB1042198470023A36010BD000011
:1019A0000178052906D190F88C20436802701B68E5
:1019B00003B118477047000070B590F870300446C6
:1019C00013B1002380F8703004F18002204601F04A
:1019D0003FFA63689B68B3B994F8803013F06005F0
:1019E00035D00021204601F031FD0021204601F0D4
:1019F00021FD63681B6813B1062120469847062322
:101A000084F8703070BD204698470028E4D0B4F8C0
:101A10008630A26F9A4288BFA36794F98030A56F81
:101A2000002B4FF0300380F20381002D00F0F28094
:101A3000092284F8702083F3118800212046D4E91C
:101A40001D23FFF76DFF002383F31188DAE794F875
:101A5000812003F07F0343EA022340F202329342E3
:101A600000F0C58021D8B3F5807F48D00DD8012B78
:101A70003FD0022B00F09380002BB2D104F18802FA
:101A800062670222A267E367C1E7B3F5817F00F0D6
:101A90009B80B3F5407FA4D194F88230012BA0D174
:101AA000B4F8883043F0020332E0B3F5006F4DD054
:101AB00017D8B3F5A06F31D0A3F5C063012B90D830
:101AC0006368204694F882205E6894F88310B4F826
:101AD0008430B047002884D0436863670368A367F5
:101AE0001AE0B3F5106F36D040F6024293427FF40D
:101AF00078AF5C4B63670223A3670023C3E794F8C6
:101B00008230012B7FF46DAFB4F8883023F00203EC
:101B1000A4F88830C4E91D55E56778E7B4F880304B
:101B2000B3F5A06F0ED194F88230204684F88A3045
:101B300001F0D0F863681B6813B101212046984773
:101B4000032323700023C4E91D339CE704F18B03B6
:101B500063670123C3E72378042B10D1302383F379
:101B600011882046FFF7BAFE85F3118803216368C8
:101B700084F88B5021701B680BB12046984794F86D
:101B80008230002BDED084F88B300423237063680E
:101B90001B68002BD6D0022120469847D2E794F844
:101BA000843020461D0603F00F010AD501F042F9EA
:101BB000012804D002287FF414AF2B4B9AE72B4B5B
:101BC00098E701F029F9F3E794F88230002B7FF4CD
:101BD00008AF94F8843013F00F01B3D01A062046F2
:101BE00002D501F04BFCADE701F03CFCAAE794F80C
:101BF0008230002B7FF4F5AE94F8843013F00F019F
:101C0000A0D01B06204602D501F020FC9AE701F087
:101C100011FC97E7142284F8702083F311882B4677
:101C20002A4629462046FFF769FE85F31188E9E632
:101C30005DB1152284F8702083F3118800212046BD
:101C4000D4E91D23FFF75AFEFDE60B2284F870202D
:101C500083F311882B462A4629462046FFF760FE6B
:101C6000E3E700BF544100084C4100085041000820
:101C700038B590F870300446002B3ED0063BDAB2FF
:101C80000F2A34D80F2B32D8DFE803F03731310870
:101C9000223231313131313131313737856FB0F85E
:101CA00086309D4214D2C3681B8AB5FBF3F203FB56
:101CB00012556DB9302383F311882B462A462946E5
:101CC000FFF72EFE85F311880A2384F870300EE0AA
:101CD000142384F87030302383F3118800232046C6
:101CE0001A461946FFF70AFE002383F3118838BD10
:101CF000C36F03B198470023E7E70021204601F0B6
:101D0000A5FB0021204601F095FB63681B6813B119
:101D10000621204698470623D7E7000010B590F823
:101D200070300446142B29D017D8062B05D001D8C3
:101D30001BB110BD093B022BFBD80021204601F04E
:101D400085FB0021204601F075FB63681B6813B119
:101D5000062120469847062319E0152BE9D10B23CD
:101D600080F87030302383F3118800231A46194617
:101D7000FFF7D6FD002383F31188DAE7C3689B6978
:101D80005B68002BD5D1C36F03B19847002384F85B
:101D90007030CEE700238268037503691B68996879
:101DA0009142FBD25A6803604260106058607047ED
:101DB00000238268037503691B6899689142FBD808
:101DC0005A680360426010605860704708B5084662
:101DD000302383F311880B7D032B05D0042B0DD00A
:101DE0002BB983F3118808BD8B6900221A604FF06C
:101DF000FF338361FFF7CEFF0023F2E7D1E9003222
:101E000013605A60F3E70000FFF7C4BF054BD968C1
:101E100008751868026853601A600122D86002755C
:101E2000FEF7F0BA402400200C4B30B5DD684B1CA7
:101E300087B004460FD02B46094A684600F04EF999
:101E40002046FFF7E3FF009B13B1684600F050F90E
:101E5000A86907B030BDFFF7D9FFF9E7402400209B
:101E6000CD1D0008044B1A68DB6890689B68984297
:101E700094BF00200120704740240020084B10B57B
:101E80001C68D868226853601A600122DC602275E1
:101E9000FFF78EFF01462046BDE81040FEF7B2BABC
:101EA0004024002038B5074C012300250649074887
:101EB0002370656001F0D2FC0223237085F3118842
:101EC00038BD00BFA82600205C4100084024002047
:101ED00000F044B9034A516853685B1A9842FBD832
:101EE000704700BF001000E08B60022308610846C5
:101EF0008B8270478368A3F1840243F8142C026933
:101F000043F8442C426943F8402C094A43F8242CF6
:101F1000C268A3F1200043F8182C022203F80C2C0D
:101F2000002203F80B2C034A43F8102C704700BF23
:101F30001D0400084024002008B5FFF7DBFFBDE8C2
:101F40000840FFF761BF0000024BDB6898610F207B
:101F5000FFF75CBF40240020302383F31188FFF794
:101F6000F3BF000008B50146302383F31188082031
:101F7000FFF75AFF002383F3118808BD064BDB6887
:101F800039B1426818605A60136043600420FFF75B
:101F90004BBF4FF0FF307047402400200368984249
:101FA00006D01A680260506018469961FFF72CBF8E
:101FB0007047000038B504460D462068844200D1C1
:101FC00038BD036823605C608561FFF71DFFF4E79F
:101FD000036810B59C68A2420CD85C688A600B60EC
:101FE0004C602160596099688A1A9A604FF0FF33FB
:101FF000836010BD121B1B68ECE700000A2938BF84
:102000000A2170B504460D460A26601901F020FC2D
:1020100001F00CFC041BA54203D8751C04462E4697
:10202000F3E70A2E04D90120BDE8704001F056BC48
:1020300070BD0000F8B5144B0D460A2A4FF00A0790
:10204000D96103F11001826038BF0A224160196929
:102050001446016048601861A81801F0EBFB01F01C
:10206000E5FB431B0646A34206D37C1C28192746E2
:10207000354601F0EDFBF2E70A2F04D90120BDE857
:10208000F84001F02BBCF8BD40240020F8B506460E
:102090000D4601F0CBFB0F4A134653F8107F9F42C9
:1020A00006D12A4601463046BDE8F840FFF7C2BFD8
:1020B000D169BB68441A2C1928BF2C46A34202D907
:1020C0002946FFF79BFF224631460348BDE8F8400A
:1020D000FFF77EBF4024002050240020C0E90323E6
:1020E000002310B45DF8044B4361FFF7CFBF00003D
:1020F00010B5194C236998420DD08168D0E900329F
:1021000013605A609A680A449A60002303604FF093
:10211000FF33A36110BD0268234643F8102F5360BC
:102120000022026022699A4203D1BDE8104001F00A
:1021300089BB936881680B44936001F077FB226947
:10214000E1699268441AA242E4D91144BDE8104002
:10215000091AFFF753BF00BF402400202DE9F047C4
:10216000DFF8BC8008F110072C4ED8F8105001F0B1
:102170005DFBD8F81C40AA68031B9A423ED8144461
:102180004FF00009D5E90032C8F81C4013605A60CE
:10219000C5F80090D8F81030B34201D101F052FBDD
:1021A00089F31188D5E9033128469847302383F312
:1021B00011886B69002BD8D001F038FB6A69A0EB5D
:1021C000040982464A450DD2022001F087FB002215
:1021D000D8F81030B34208D151462846BDE8F04740
:1021E000FFF728BF121A2244F2E712EB0909294629
:1021F000384638BF4A46FFF7EBFEB5E7D8F810304F
:10220000B34208D01444C8F81C00211AA960BDE8E4
:10221000F047FFF7F3BEBDE8F08700BF5024002071
:102220004024002000207047FEE7000070470000B7
:102230004FF0FF307047000002290CD0032904D072
:102240000129074818BF00207047032A05D8054810
:1022500000EBC2007047044870470020704700BF81
:10226000344200083C220020E841000870B59AB0D2
:1022700005460846144601A900F0C2F801A8FEF779
:1022800007FE431C0022C6B25B001046C5E90034BD
:1022900023700323023404F8013C01ABD1B20234B1
:1022A0008E4201D81AB070BD13F8011B013204F838
:1022B000010C04F8021CF1E708B5302383F3118800
:1022C0000348FFF749FA002383F3118808BD00BFD4
:1022D000B026002090F8803003F01F02012A07D1B9
:1022E00090F881200B2A03D10023C0E91D3315E0AB
:1022F00003F06003202B08D1B0F884302BB990F89C
:102300008120212A03D81F2A04D8FFF707BA222ADE
:10231000EBD0FAE7034A426707228267C3670120CE
:10232000704700BF3322002007B5052917D8DFE822
:1023300001F0191603191920302383F31188104A6C
:1023400001210190FFF7B0FA019802210D4AFFF731
:10235000ABFA0D48FFF7CCF9002383F3118803B0E3
:102360005DF804FB302383F311880748FFF796F9E3
:10237000F2E7302383F311880348FFF7ADF9EBE769
:1023800088410008AC410008B026002038B50C4D4B
:102390000C4C2A460C4904F10800FFF767FF05F1D1
:1023A000CA0204F110000949FFF760FF05F5CA727F
:1023B00004F118000649BDE83840FFF757BF00BFD9
:1023C000883F00203C22002068410008724100083C
:1023D0007D41000870B5044608460D46FEF758FDDD
:1023E000C6B22046013403780BB9184670BD324698
:1023F0002946FEF739FD0028F3D10120F6E7000059
:102400002DE9F84F05460C46FEF742FD2A49C6B2B3
:102410002846FFF7DFFF08B10136F6B22749284604
:10242000FFF7D8FF08B11036F6B2632E0DD8DFF8EB
:102430008890DFF888A0224FDFF88CB0DFF88C801E
:102440002E7846B92670BDE8F88F29462046BDE8AB
:10245000F84F01F0C1BD252E2AD107224946284652
:10246000FEF702FD50B9D8F800300735083444F8BB
:10247000083CD8F8043044F8043CE1E7082251460F
:102480002846FEF7F1FC98B9A21C0E4B19780232CF
:102490000909C95D02F8041C13F8011B01F00F01C2
:1024A0005B45C95D02F8031CF0D118340835C7E755
:1024B000013504F8016BC3E7544200087D41000870
:1024C0006542000800E8F11F0CE8F11F5C420008BB
:1024D000BFF34F8F044B1A695107FCD1D3F8102179
:1024E0005207F8D1704700BF0020005208B50D4BCD
:1024F0001B78ABB9FFF7ECFF0B4BDA68D10704D5BB
:102500000A4A5A6002F188325A60D3F80C21D20785
:1025100006D5064AC3F8042102F18832C3F8042123
:1025200008BD00BFE641002000200052230167459E
:1025300008B5114B1B78F3B9104B1A69510703D535
:10254000DA6842F04002DA60D3F81021520705D56C
:10255000D3F80C2142F04002C3F80C21FFF7B8FF7A
:10256000064BDA6842F00102DA60D3F80C2142F03F
:102570000102C3F80C2108BDE641002000200052F2
:102580000F289ABF00F580604004002070470000CB
:102590004FF4003070470000102070470F2808B536
:1025A0000BD8FFF7EDFF00F500330268013204D1CC
:1025B00004308342F9D1012008BD0020FCE700006F
:1025C0000F2838B505463FD8FFF782FF1F4CFFF7AD
:1025D0008DFF4FF0FF3307286361C4F814311DD815
:1025E0002361FFF775FF030243F02403E360E36810
:1025F00043F08003E36023695A07FCD42846FFF7C1
:1026000067FFFFF7BDFF4FF4003100F0F5F82846F3
:10261000FFF78EFFBDE83840FFF7C0BFC4F81031A8
:10262000FFF756FFA0F108031B0243F02403C4F890
:102630000C31D4F80C3143F08003C4F80C31D4F8D9
:1026400010315B07FBD4D9E7002038BD00200052D1
:102650002DE9F84F05460C46104645EA0203DE0612
:1026600002D00020BDE8F88F20F01F00DFF8BCB0DA
:10267000DFF8BCA0FFF73AFF04EB0008444503D1A4
:102680000120FFF755FFEDE720222946204601F003
:1026900093FC10B920352034F0E72B4605F12002D9
:1026A0001F68791CDDD104339A42F9D105F17843D2
:1026B0001B481C4EB3F5801F1B4B38BF184603F157
:1026C000F80332BFD946D1461E46FFF701FF076027
:1026D000A5EB040C336804F11C0143F002033360E2
:1026E000231FD9F8007017F00507FAD153F8042F0B
:1026F0008B424CF80320F4D1BFF34F8FFFF7E8FE75
:102700004FF0FF332022214603602846336823F030
:102710000203336001F050FC0028BBD03846B0E71C
:10272000142100520C20005214200052102000529C
:102730001021005210B5084C237828B11BB9FFF7BF
:10274000D5FE0123237010BD002BFCD02070BDE806
:102750001040FFF7EDBE00BFE64100200244074BEA
:10276000D2B210B5904200D110BD441C00B253F853
:10277000200041F8040BE0B2F4E700BF50400058DD
:102780000E4B30B51C6F240405D41C6F1C671C6FE6
:1027900044F400441C670A4C02442368D2B243F458
:1027A00080732360074B904200D130BD441C51F828
:1027B000045B00B243F82050E0B2F4E70044025852
:1027C000004802585040005807B5012201A90020D6
:1027D000FFF7C4FF019803B05DF804FB13B504468E
:1027E000FFF7F2FFA04205D0012201A900200194C9
:1027F000FFF7C6FF02B010BD0144BFF34F8F064B79
:10280000884204D3BFF34F8FBFF36F8F7047C3F875
:102810005C022030F4E700BF00ED00E0034B1A68D3
:102820001AB9034AD2F8D0241A607047E841002050
:102830000040025808B5FFF7F1FF024B1868C0F3DB
:10284000806008BDE8410020EFF309830549683343
:102850004A6B22F001024A6383F30988002383F361
:102860001188704700EF00E0302080F3118862B6D5
:102870000D4B0E4AD96821F4E0610904090C0A43A2
:102880000B49DA60D3F8FC2042F08072C3F8FC20D8
:10289000084AC2F8B01F116841F0010111602022FE
:1028A000DA7783F82200704700ED00E00003FA05B4
:1028B00055CEACC5001000E0302310B583F311886D
:1028C0000E4B5B6813F4006314D0F1EE103AEFF393
:1028D00009844FF08073683CE361094BDB6B23662E
:1028E00084F30988FFF7BEFA10B1064BA36110BD4F
:1028F000054BFBE783F31188F9E700BF00ED00E02B
:1029000000EF00E02F0400083204000870B5BFF3A8
:102910004F8FBFF36F8F1A4A0021C2F85012BFF3D6
:102920004F8FBFF36F8F536943F400335361BFF38D
:102930004F8FBFF36F8FC2F88410BFF34F8FD2F861
:10294000803043F6E074C3F3C900C3F34E335B0138
:1029500003EA0406014646EA81750139C2F860526D
:10296000F9D2203B13F1200FF2D1BFF34F8F5369FF
:1029700043F480335361BFF34F8FBFF36F8F70BD4C
:1029800000ED00E0FEE70000214B2248224A70B52E
:10299000904237D3214BC11EDA1C121A22F00302D7
:1029A0008B4238BF00220021FEF77AFA1C4A00232E
:1029B000C2F88430BFF34F8FD2F8803043F6E07412
:1029C000C3F3C900C3F34E335B0103EA04060146B7
:1029D00046EA81750139C2F86C52F9D2203B13F1F5
:1029E000200FF2D1BFF34F8FBFF36F8FBFF34F8F25
:1029F000BFF36F8F0023C2F85032BFF34F8FBFF386
:102A00006F8F70BD53F8041B40F8041BC0E700BF74
:102A100054440008BC430020BC430020BC430020B9
:102A200000ED00E0054B996B21EA000199631A6EF5
:102A300022EA00021A661B6E704700BF004502586A
:102A400070B5D0E9244300224FF0FF359E6804EBB7
:102A500042135101D3F80009002805DAD3F8000920
:102A600040F08040C3F80009D3F8000B002805DAD5
:102A7000D3F8000B40F08040C3F8000B013263181C
:102A80009642C3F80859C3F8085BE0D24FF001132F
:102A9000C4F81C3870BD0000890141F020010161BB
:102AA00003699B06FCD41220FFF714BA10B50A4C38
:102AB0002046FEF7D7FE094BC4F89030084BC4F807
:102AC0009430084C2046FEF7CDFE074BC4F89030FA
:102AD000064BC4F8943010BDEC41002000000840C3
:102AE0009C4200088842002000000440A8420008E0
:102AF00070B503780546012B58D13F4BD0F8904074
:102B0000984254D13D4B0E2165209A6B42F00062F1
:102B10009A631A6E42F000621A661B6E384BD3F845
:102B2000802042F00062C3F88020D3F8802022F099
:102B30000062C3F88020D3F88030FEF7BFFC314B31
:102B4000E360314BC4F800380023D5F89060C4F836
:102B5000003EC02323604FF40413A3633369002BAA
:102B6000FCDA01230C203361FFF7B4F93369DB078A
:102B7000FCD41220FFF7AEF93369002BFCDA0026F3
:102B80002846A660FFF75CFF6B68C4F81068DB6836
:102B9000C4F81468C4F81C6863BB1C4BA3614FF0F5
:102BA000FF336361A36843F00103A36070BD184B5A
:102BB0009842C9D1114B4FF080609A6B42F000727D
:102BC0009A631A6E42F000721A661B6E0C4BD3F8B1
:102BD000802042F00072C3F88020D3F8802022F0D9
:102BE0000072C3F88020D3F88030FFF71BFF0E215E
:102BF0004D20A2E7074BD1E7EC41002000450258E9
:102C0000004402584014004003002002003C30C041
:102C100088420020083C30C0F8B5D0F89040054606
:102C200000214FF000662046FFF736FFD5F89410DC
:102C300000234FF001128F684FF0FF30C4F8343892
:102C4000C4F81C2804EB431201339F42C2F8006908
:102C5000C2F8006BC2F80809C2F8080BF2D20B6880
:102C6000D5F89020C5F89830636210231361166977
:102C700016F01006FBD11220FFF72CF9D4F800381B
:102C800023F4FE63C4F80038A36943F4402343F0FF
:102C90001003A3610923C4F81038C4F814380B4B8F
:102CA000EB604FF0C043C4F8103B094BC4F8003B45
:102CB000C4F81069C4F80039D5F8983003F110024F
:102CC00043F48013C5F89820A362F8BD7842000849
:102CD00040800010D0F8902090F88A10D2F8003888
:102CE00023F4FE6343EA0113C2F800387047000082
:102CF0002DE9F84300EB8103D0F890500C46804654
:102D0000DA680FFA81F94801166806F00306731EA7
:102D1000022B05EB41134FF0000194BFB604384E6F
:102D2000C3F8101B4FF0010104F1100398BF06F126
:102D3000805601FA03F3916998BF06F50046002911
:102D40003AD0578A04F15801374349016F50D5F8FA
:102D50001C180B430021C5F81C382B180127C3F899
:102D60001019A7405369611E9BB3138A928B9B086D
:102D7000012A88BF5343D8F89820981842EA0343A1
:102D800001F140022146C8F89800284605EB82026E
:102D90005360FFF781FE08EB8900C3681B8A43EA92
:102DA000845348341E4364012E51D5F81C381F4308
:102DB000C5F81C78BDE8F88305EB4917D7F8001B68
:102DC00021F40041C7F8001BD5F81C1821EA0303C1
:102DD000C0E704F13F030B4A2846214605EB830375
:102DE0005A60FFF759FE05EB4910D0F8003923F47B
:102DF0000043C0F80039D5F81C3823EA0707D7E7A5
:102E00000080001000040002D0F894201268C0F87E
:102E10009820FFF715BE00005831D0F890304901D6
:102E20005B5813F4004004D013F4001F0CBF0220C1
:102E3000012070474831D0F8903049015B5813F4B5
:102E4000004004D013F4001F0CBF02200120704783
:102E500000EB8101CB68196A0B6813604B68536003
:102E60007047000000EB810330B5DD68AA69136884
:102E7000D36019B9402B84BF402313606B8A146858
:102E8000D0F890201C4402EB4110013C09B2B4FB85
:102E9000F3F46343033323F0030343EAC44343F0EF
:102EA000C043C0F8103B2B6803F00303012B0ED185
:102EB000D2F8083802EB411013F4807FD0F8003BC1
:102EC00014BF43F0805343F00053C0F8003B02EBC3
:102ED0004112D2F8003B43F00443C2F8003B30BD3E
:102EE0002DE9F041D0F8906005460C4606EB411301
:102EF000D3F8087B3A07C3F8087B08D5D6F814380E
:102F00001B0704D500EB8103DB685B689847FA0771
:102F10001FD5D6F81438DB071BD505EB8403D96819
:102F2000CCB98B69488A5A68B2FBF0F600FB1622CE
:102F30008AB91868DA6890420DD2121AC3E90024DF
:102F4000302383F3118821462846FFF78BFF84F353
:102F50001188BDE8F081012303FA04F26B8923EAAA
:102F600002036B81CB68002BF3D021462846BDE8D5
:102F7000F041184700EB81034A0170B5DD68D0F8D5
:102F800090306C692668E66056BB1A444FF4002006
:102F9000C2F810092A6802F00302012A0AB20ED10F
:102FA000D3F8080803EB421410F4807FD4F800092A
:102FB00014BF40F0805040F00050C4F8000903EB0B
:102FC0004212D2F8000940F00440C2F80009012280
:102FD000D3F8340802FA01F10143C3F8341870BD84
:102FE00019B9402E84BF4020206020681A442E8AE0
:102FF0008419013CB4FBF6F440EAC44040F00050B0
:10300000C6E700002DE9F843D0F8906005460C466D
:103010004F0106EB4113D3F8088918F0010FC3F8EC
:1030200008891CD0D6F81038DB0718D500EB8103CF
:10303000D3F80CC0DCF81430D3F800E0DA68964519
:1030400030D2A2EB0E024FF000091A60C3F80490D0
:10305000302383F31188FFF78DFF89F3118818F06F
:10306000800F1DD0D6F834380126A640334217D041
:1030700005EB84030134D5F89050D3F80CC0E4B2CA
:103080002F44DCF8142005EB0434D2F800E051683A
:10309000714514D3D5F8343823EA0606C5F83468E8
:1030A000BDE8F883012303FA01F2038923EA02034E
:1030B0000381DCF80830002BD1D09847CFE7AEEB86
:1030C0000103BCF81000834228BF0346D7F8180953
:1030D00080B2B3EB800FE3D89068A0F1040959F8EF
:1030E000048FC4F80080A0EB09089844B8F1040FDD
:1030F000F5D818440B4490605360C8E72DE9F84FA9
:10310000D0F8905004466E69AB691E4016F48058A2
:103110006E6103D0BDE8F84FFEF714BC002E12DA42
:10312000D5F8003E9B0705D0D5F8003E23F00303F9
:10313000C5F8003ED5F80438204623F00103C5F851
:103140000438FEF72DFC370505D52046FFF778FC3F
:103150002046FEF713FCB0040CD5D5F8083813F060
:10316000060FEB6823F470530CBF43F4105343F481
:10317000A053EB6031071BD56368DB681BB9AB69F3
:1031800023F00803AB612378052B0CD1D5F8003E62
:103190009A0705D0D5F8003E23F00303C5F8003E9A
:1031A0002046FEF7FDFB6368DB680BB120469847BD
:1031B000F30200F1BA80B70226D5D4F89090002728
:1031C0004FF0010A09EB4712D2F8003B03F4402309
:1031D000B3F5802F11D1D2F8003B002B0DDA6289B4
:1031E0000AFA07F322EA0303638104EB8703DB682F
:1031F000DB6813B13946204698470137D4F894303C
:10320000FFB29B689F42DDD9F00619D5D4F8900033
:10321000026AC2F30A1702F00F0302F4F012B2F5C9
:10322000802F00F0CA80B2F5402F09D104EB830350
:10323000002200F58050DB681B6A974240F0B080A6
:103240003003D5F8185835D5E90303D500212046B9
:10325000FFF746FEAA0303D501212046FFF740FEF3
:103260006B0303D502212046FFF73AFE2F0303D557
:1032700003212046FFF734FEE80203D5042120464F
:10328000FFF72EFEA90203D505212046FFF728FEF1
:103290006A0203D506212046FFF722FE2B0203D542
:1032A00007212046FFF71CFEEF0103D50821204629
:1032B000FFF716FE700340F1A780E90703D5002150
:1032C0002046FFF79FFEAA0703D501212046FFF7FE
:1032D00099FE6B0703D502212046FFF793FE2F07C7
:1032E00003D503212046FFF78DFEEE0603D504210A
:1032F0002046FFF787FEA80603D505212046FFF7E5
:1033000081FE690603D506212046FFF77BFE2A06CB
:1033100003D507212046FFF775FEEB0574D520463F
:103320000821BDE8F84FFFF76DBED4F890904FF03C
:10333000000B4FF0010AD4F894305FFA8BF79B68CA
:103340009F423FF638AF09EB4713D3F8002902F448
:103350004022B2F5802F20D1D3F80029002A1CDAB0
:10336000D3F8002942F09042C3F80029D3F800298D
:10337000002AFBDB3946D4F89000FFF78DFB228949
:103380000AFA07F322EA0303238104EB8703DB68CD
:103390009B6813B13946204698470BF1010BCAE7E9
:1033A000910701D1D0F80080072A02F101029CBFE9
:1033B00003F8018B4FEA18283FE704EB830300F57D
:1033C0008050DA68D2F818C0DCF80820DCE9001C6C
:1033D000A1EB0C0C00218F4208D1DB689B699A6835
:1033E0003A449A605A683A445A6029E711F0030F48
:1033F00001D1D0F800808C4501F1010184BF02F8B1
:10340000018B4FEA1828E6E7BDE8F88F08B50348B6
:10341000FFF774FEBDE80840FFF74EBAEC4100200C
:1034200008B50348FFF76AFEBDE80840FFF744BA55
:1034300088420020D0F8903003EB4111D1F8003BD6
:1034400043F40013C1F8003B70470000D0F89030FF
:1034500003EB4111D1F8003943F40013C1F80039EE
:1034600070470000D0F8903003EB4111D1F8003BD9
:1034700023F40013C1F8003B70470000D0F89030EF
:1034800003EB4111D1F8003923F40013C1F80039DE
:103490007047000030B50433039C0172002104FB27
:1034A0000325C160C0E90653049B0363059BC0E983
:1034B0000000C0E90422C0E90842C0E90A114363E0
:1034C00030BD00000022416AC260C0E90411C0E9B9
:1034D0000A226FF00101FEF76DBD0000D0E9043251
:1034E000934201D1C2680AB9181D70470020704785
:1034F000036919600021C2680132C260C2691344C5
:1035000082699342036124BF436A0361FEF746BDAB
:1035100038B504460D46E3683BB162690020131DCF
:103520001268A3621344E36207E0237A33B92946A1
:103530002046FEF723FD0028EDDA38BD6FF00100CC
:10354000FBE70000C368C269013BC36043691344E1
:1035500082699342436124BF436A436100238362CB
:10356000036B03B11847704770B53023044683F3EB
:103570001188866A3EB9FFF7CBFF054618B186F37E
:103580001188284670BDA36AE26A13F8015B934272
:10359000A36202D32046FFF7D5FF002383F31188EF
:1035A000EFE700002DE9F84F04460E46174698460F
:1035B0004FF0300989F311880025AA46D4F828B0C5
:1035C000BBF1000F09D141462046FFF7A1FF20B112
:1035D0008BF311882846BDE8F88FD4E90A12A7EBCF
:1035E000050B521A934528BF9346BBF1400F1BD9D8
:1035F000334601F1400251F8040B914243F8040BA9
:10360000F9D1A36A403640354033A362D4E90A2396
:103610009A4202D32046FFF795FF8AF31188BD42F4
:10362000D8D289F31188C9E730465A46FDF712FC13
:10363000A36A5E445D445B44A362E7E710B5029C65
:103640000433017203FB0421C460C0E906130023A4
:10365000C0E90A33039B0363049BC0E90000C0E98F
:103660000422C0E90842436310BD0000026A6FF003
:103670000101C260426AC0E904220022C0E90A22B4
:10368000FEF798BCD0E904239A4201D1C26822B95E
:10369000184650F8043B0B60704700231846FAE7C1
:1036A000C3680021C2690133C3604369134482695E
:1036B0009342436124BF436A4361FEF76FBC00003D
:1036C00038B504460D46E3683BB1236900201A1D56
:1036D000A262E2691344E36207E0237A33B9294620
:1036E0002046FEF74BFC0028EDDA38BD6FF00100F4
:1036F000FBE7000003691960C268013AC260C26951
:10370000134482699342036124BF436A0361002327
:103710008362036B03B118477047000070B5302314
:103720000D460446114683F31188866A2EB9FFF7C9
:10373000C7FF10B186F3118870BDA36A1D70A36A1C
:10374000E26A01339342A36204D3E169204604395B
:10375000FFF7D0FF002080F31188EDE72DE9F84F47
:1037600004460D46904699464FF0300A8AF3118878
:103770000026B346A76A4FB949462046FFF7A0FF87
:1037800020B187F311883046BDE8F88FD4E90A07E5
:103790003A1AA8EB0607974228BF1746402F1BD9B5
:1037A00005F1400355F8042B9D4240F8042BF9D154
:1037B000A36A40364033A362D4E90A239A4204D371
:1037C000E16920460439FFF795FF8BF311884645E0
:1037D000D9D28AF31188CDE729463A46FDF73AFB5C
:1037E000A36A3D443E443B44A362E5E7D0E9042399
:1037F0009A4217D1C3689BB1836A8BB1043B9B1A71
:103800000ED01360C368013BC360C3691A44836967
:103810009A42026124BF436A036100238362012349
:10382000184670470023FBE700F016B94FF08043BD
:10383000586A70474FF08043002258631A61022291
:10384000DA6070474FF080430022DA607047000072
:103850004FF0804358637047FEE7000070B51B4B84
:103860000025044686B058600E4685620163FEF767
:10387000FBFF04F11003A560E562C4E904334FF0D7
:10388000FF33C4E90044C4E90635FFF7CFFF2B46F8
:10389000024604F134012046C4E9082380230C4A7F
:1038A0002565FEF721FB01230A4AE06000920375BB
:1038B000684672680192B268CDE90223064BCDE9F1
:1038C0000435FEF739FB06B070BD00BFA826002006
:1038D000B4420008B942000859380008024AD36AC5
:1038E0001843D062704700BF402400204B684360FB
:1038F0008B688360CB68C3600B6943614B6903626B
:103900008B6943620B6803607047000008B53A4B4F
:1039100040F2FF713948D3F888200A43C3F8882061
:10392000D3F8882022F4FF6222F00702C3F888202F
:10393000D3F88830324B1A6C0A431A649A6E0A43E1
:103940009A66304A9B6E1146FFF7D0FF00F5806003
:1039500002F11C01FFF7CAFF00F5806002F1380197
:10396000FFF7C4FF00F5806002F15401FFF7BEFFCE
:1039700000F5806002F17001FFF7B8FF00F580608C
:1039800002F18C01FFF7B2FF00F5806002F1A8019F
:10399000FFF7ACFF00F5806002F1C401FFF7A6FF5E
:1039A00000F5806002F1E001FFF7A0FF00F5806004
:1039B00002F1FC01FFF79AFF02F58C7100F58060BF
:1039C000FFF794FF00F00AF90F4BD3F8902242F072
:1039D0000102C3F89022D3F8942242F00102C3F806
:1039E00094220522C3F898204FF06052C3F89C201F
:1039F000064AC3F8A02008BD00440258000002583F
:103A000000450258C042000800ED00E01F00080316
:103A100008B500F0B3FAFEF745FA0C4BDA6B42F04A
:103A20004002DA635A6E22F040025A665B6E084B1F
:103A30001A6842F008021A601A6842F004021A601A
:103A4000FEF7ECFEBDE80840FEF7A0BC00450258BA
:103A500000180248704700000F4B9A6C42F00102B8
:103A60009A641A6F42F001021A670C4A1B6FD36BFB
:103A700043F00103D3634FF08043C7229A624FF0B3
:103A8000FF32DA6200229A615A63DA605A600122D8
:103A90005A611A60704700BF004502580010005C70
:103AA0004FF0804208B51169D3680B40D9B29B072B
:103AB0006FEA0101116107D5302383F31188FEF706
:103AC00007FA002383F3118808BD0000044BDA6B6A
:103AD0000243DA635A6E104358665B6E704700BF4C
:103AE0000045025808B53C4B4FF0FF31D3F8802019
:103AF00062F00042C3F88020D3F8802002F0004238
:103B0000C3F88020D3F88020D3F88420C3F8841031
:103B1000D3F884200022C3F88420D3F88400D86F1F
:103B200040F0FF4040F4FF0040F4DF4040F07F00F1
:103B3000D867D86F20F0FF4020F4FF0020F4DF406A
:103B400020F07F00D867D86FD3F888006FEA405024
:103B50006FEA5050C3F88800D3F88800C0F30A0019
:103B6000C3F88800D3F88800D3F89000C3F8901009
:103B7000D3F89000C3F89020D3F89000D3F89400C5
:103B8000C3F89410D3F89400C3F89420D3F89400A9
:103B9000D3F89800C3F89810D3F89800C3F8982089
:103BA000D3F89800D3F88C00C3F88C10D3F88C00AD
:103BB000C3F88C20D3F88C00D3F89C00C3F89C1079
:103BC000D3F89C10C3F89C20D3F89C30FDF7AEFBD3
:103BD000BDE8084000F0AAB90044025808B5012227
:103BE000504BC3F80821504B5A6D42F002025A65FF
:103BF000DA6F42F00202DA670222DB6F4B4BDA60C7
:103C00005A689104FCD54A4A1A6001229A60494ACE
:103C1000DA6000221A614FF440429A61434B9A697C
:103C20009204FCD51A6842F480721A60424B1A6FF3
:103C300012F4407F04D04FF480321A6700221A67D2
:103C40001A6842F001021A603B4B1A685007FCD513
:103C500000221A611A6912F03802FBD101211960A1
:103C60004FF0804159605A67344ADA62344A1A6127
:103C70001A6842F480321A602F4B1A689103FCD5FF
:103C80001A6842F480521A601A689204FCD52D4AD0
:103C90002D499A6200225A63196301F57C01DA63A7
:103CA00001F2E71199635A64284A1A64284ADA62D1
:103CB0001A6842F0A8521A601F4B1A6802F0285284
:103CC000B2F1285FF9D148229A614FF48862DA6133
:103CD00040221A621F4ADA641F4A1A651F4A5A654F
:103CE0001F4A9A6532231F4A1360136803F00F03BB
:103CF000022BFAD1104A136943F0030313611369CD
:103D000003F03803182BFAD14FF00050FFF7DEFE16
:103D10004FF08040FFF7DAFE4FF00040BDE808406A
:103D2000FFF7D4BE008000510045025800480258F9
:103D300000C000F002000001004402580000FF0132
:103D4000008890082220400063020901470E050800
:103D5000DD0BBF0120000020000001100910E00071
:103D600000010110002000524FF0B04208B5D2F817
:103D7000883003F00103C2F8883023B1044A136885
:103D80000BB150689847BDE80840FEF795BD00BFED
:103D90003C4300204FF0B04208B5D2F8883003F021
:103DA0000203C2F8883023B1044A93680BB1D0688B
:103DB0009847BDE80840FEF77FBD00BF3C430020A8
:103DC0004FF0B04208B5D2F8883003F00403C2F8CF
:103DD000883023B1044A13690BB150699847BDE894
:103DE0000840FEF769BD00BF3C4300204FF0B042E1
:103DF00008B5D2F8883003F00803C2F8883023B140
:103E0000044A93690BB1D0699847BDE80840FEF7B2
:103E100053BD00BF3C4300204FF0B04208B5D2F87C
:103E2000883003F01003C2F8883023B1044A136AC3
:103E30000BB1506A9847BDE80840FEF73DBD00BF92
:103E40003C4300204FF0B04310B5D3F8884004F451
:103E50007872C3F88820A30604D5124A936A0BB17E
:103E6000D06A9847600604D50E4A136B0BB1506BAD
:103E70009847210604D50B4A936B0BB1D06B98473A
:103E8000E20504D5074A136C0BB1506C9847A305A3
:103E900004D5044A936C0BB1D06C9847BDE8104030
:103EA000FEF70ABD3C4300204FF0B04310B5D3F8F5
:103EB000884004F47C42C3F88820620504D5164A81
:103EC000136D0BB1506D9847230504D5124A936DBD
:103ED0000BB1D06D9847E00404D50F4A136E0BB1B7
:103EE000506E9847A10404D50B4A936E0BB1D06E67
:103EF0009847620404D5084A136F0BB1506F984776
:103F0000230404D5044A936F0BB1D06F9847BDE8E2
:103F10001040FEF7D1BC00BF3C43002008B5FFF7BE
:103F2000BFFDBDE80840FEF7C7BC0000062108B58C
:103F30000846FDF7C3FA06210720FDF7BFFA062160
:103F40000820FDF7BBFA06210920FDF7B7FA062184
:103F50000A20FDF7B3FA06211720FDF7AFFA062174
:103F60002820FDF7ABFA09217A20FDF7A7FA0721EF
:103F70001C20BDE80840FDF7A1BA000008B5FFF716
:103F8000B1FD00F00BF8FDF76BFCFDF73DFBFFF713
:103F900061FDBDE80840FFF747BC00000023054A6B
:103FA00019460133102BC2E9001102F10802F8D1C1
:103FB000704700BF3C43002010B5013902449042D5
:103FC00001D1002005E0037811F8014FA34201D090
:103FD000181B10BD0130F2E7034611F8012B03F85E
:103FE000012B002AF9D1704753544D333248373FE3
:103FF0003F3F0053544D3332483733782F373278B0
:104000000053544D3332483734332F3735332F373D
:104010003530000001105A000310590001205800EB
:104020000320560010000240080002400008024031
:1040300000000B0028000240080002400408024073
:1040400006010C004000024008000240080802403F
:1040500010020D0058000240080002400C08024007
:1040600016030E00700002400C00024010080240CF
:1040700000040F00880002400C00024014080240B7
:1040800006051000A00002400C0002401808024083
:1040900010061100B80002400C0002401C0802404B
:1040A00016072F00100402400804024020080240B6
:1040B0000008380028040240080402402408024096
:1040C0000609390040040240080402402808024062
:1040D000100A3A0058040240080402402C0802402A
:1040E000160B3B00700402400C04024030080240F2
:1040F000000C3C00880402400C04024034080240DA
:10410000060D4400A00402400C040240380802409E
:10411000100E4500B80402400C0402403C08024066
:10412000160F4600000000008515000871150008F4
:10413000AD15000899150008A5150008911500088F
:104140007D15000869150008B91500080000000079
:10415000010000000000000063300000584100082A
:1041600098240020A82600204172647550696C6F65
:10417000740025424F415244252D424C00255345A1
:104180005249414C250000000200000000000000E0
:10419000A51700081518000840004000583F0020EF
:1041A000683F002002000000000000000300000043
:1041B000000000005D180008000000001000000072
:1041C000783F002000000000010000000000000017
:1041D000EC410020010102002923000839220008D7
:1041E000D5220008B922000843000000F041000871
:1041F00009024300020100C032090400000102026A
:10420000010005240010010524010001042402021C
:104210000524060001070582030800FF09040100C8
:10422000020A0000000705010240000007058102A4
:1042300040000000120000003C4200081201100182
:104240000200004009124157000201020301000070
:104250000403090425424F41524425007246435548
:104260002D534C3200303132333435363738394102
:10427000424344454600000000000000B919000810
:10428000711C00081D1D0008400040002443002050
:10429000244300200100000034430020800000007F
:1042A00040010000080000000001000000100000B4
:1042B000080000006D61696E0069646C65000000B3
:1042C0000000802A00000000AAAAAAAA0000002478
:1042D000FFFF00000000000000A00A000000000036
:1042E00000000000AAAAAAAA00000000FFFF000028
:1042F00000000000000000000000000000000000BE
:10430000AAAAAAAA00000000FFFF00000000000007
:10431000000000000000000000000000AAAAAAAAF5
:1043200000000000FFFF000000000000000000008F
:104330000000000000000000AAAAAAAA00000000D5
:10434000FFFF00000000000000000000500410000B
:1043500000000000AAAAAAAA50041000FFFF000053
:10436000000000000000000000001000000000003D
:10437000AAAAAAAA00001000FFFF00000000000087
:10438000000000000000000000000000AAAAAAAA85
:1043900000000000FFFF000000000000000000001F
:1043A00000540101E0000000AAAAAAAA000001012D
:1043B000FFFF0000000000000000000000000000FF
:1043C00000000000AAAAAAAA00000000FFFF000047
:1043D00000000000000000000000000000000000DD
:1043E000AAAAAAAA00000000FFFF00000000000027
:1043F00000000000000000004E040000000000006B
:1044000000001E0000000000FF000000000000008F
:10441000E83F000883040000F33F00085004000058
:10442000014000080096000000000800960000000F
:1044300000080000040000005042000800000000D6
:10444000000000000000000000000000000000006C
:044450000000000068
:00000001FF
